:0200000280007C
:10000000582B0720711108006D1108006D110800B0
:100010006D1108006D1108006D110800000000004E
:100020000000000000000000000000006D1108004A
:100030006D110800000000006D1108006D1108002E
:100040006D1108006D1108006D1108006D11080098
:100050006D1108006D1108006D1108006D11080088
:100060006D1108006D11080000000000B90F0800B4
:10007000CD0F0800E10F0800F50F08000000000098
:10008000000000006D1108006D1108006D110800DE
:100090006D1108006D1108006D1108006D11080048
:1000A0006D110800000000006D1108006D110800BE
:1000B0006D1108006D1108006D1108006D11080028
:1000C0006D1108006D1108006D1108006D11080018
:1000D0006D1108006D1108006D1108006D11080008
:1000E0006D1108006D1108006D1108006D110800F8
:1000F0006D11080010B5054C237833B9044B13B1CA
:100100000448AFF300800123237010BDC809072005
:1001100000000000146D080008B5064B1BB106482E
:100120000649AFF300800648036813B1054B03B1DD
:10013000984708BD00000000146D0800CC09072096
:10014000146D080000000000F0B583B004460D46B1
:10015000002301931F4B984207D11F461E4E38467D
:100160002946B0470028FAD119E01C4B984209D122
:100170001F461B4E384601A9B0470028FAD1019B03
:100180002B7019E0174B984209D11E46144C30468B
:1001900001A9A0470028FAD1019B2B7018E0124B4F
:1001A0009C4209D11E460E4C304601A9A0470028AA
:1001B000FAD1019B2B700BE00C4B9C4208D11E46E0
:1001C000074C304601A9A0470028FAD1019B2B70AB
:1001D00003B0F0BD00080E4009040800008009408B
:1001E0003104080000C0094000000A4000400A40F5
:1001F00070B50C46214B984207D11E46204D304623
:100200002146A8470028FAD12BE01E4B984207D17F
:100210001E461D4D30462146A8470028FAD122E04F
:100220001A4B984207D11E46174D30462146A84723
:100230000028FAD119E0164B984207D11E46124DFC
:1002400030462146A8470028FAD110E0114B9842C9
:100250000FD11E460C4D30462146A8470028FAD142
:1002600009E0012070BD012070BD012070BD01209A
:1002700070BD002070BD012070BD00BF00080E40A1
:10028000F9030800008009401D04080000C009406F
:1002900000000A4000400A4030B585B00820154DE6
:1002A000A847154C154B1C60154A164B1A60164A88
:1002B000164B1A60164B01934FF4E13302934FF43F
:1002C000006303930820A847204601A9114B9847D3
:1002D000114D2B6898680021104CA0472B68586876
:1002E0000021A0470E480F4CA0470F48A04705B07B
:1002F00030BD00BFF110080000080E40B80A07200A
:10030000F1010800B40A072049010800B00A0720DB
:1003100000BD0105C1030800880507205141080000
:10032000186A080095400800286A08002DE9F04185
:100330000C46904660B9002A0EDD8F18094E0A4D12
:10034000306821462B6898470134BC42F8D106E05A
:100350004FF0FF30BDE8F0810020BDE8F08140465D
:10036000BDE8F081B80A0720B00A07202DE9F04166
:100370000E461546013802280FD892B10024DFF846
:100380003C800D4FD8F80000315D3B68984700284D
:100390000ADB0134A542F5D10AE04FF0FF30BDE899
:1003A000F0810020BDE8F0814FF0FF30BDE8F08122
:1003B0002046BDE8F08100BFB40A0720B80A072034
:1003C00010B4AC2303600A684B68B2FBF3F31B095B
:1003D0005C1E4FF6FE7294420AD803628B6843603B
:1003E00040F20223C0F8203150230360002000E0D7
:1003F00001205DF8044B7047436913F0020F1ABFE8
:10040000C161002001207047436913F0010F1DBF37
:1004100083690B7000200120704700BF436913F00F
:10042000020F1DBFC1F30801C16100200120704708
:10043000436913F0010F05D08369C3F308030B6010
:1004400000207047012070472DE9F04180460023CD
:10045000124A1360124A1360124E134F3088B84785
:1004600004460D464046B847104BD3E90023104FD1
:10047000B84702460B46204629460E4CA0470E4B75
:10048000984730800D4B18880D4CA04741F6C81096
:100490000C4B98473088A047BDE8F081FC09072045
:1004A000000A072038010720E9330800400107202F
:1004B000B534080051310800393A080048010720D6
:1004C0009113080001000720032809D004280DD04B
:1004D000022810D10B4B9981DA8102221A740AE0AA
:1004E000084B59829A8203229A7504E0054B1983BE
:1004F0005A8304221A77034B32221A8000225A8030
:100500001A717047E80A0720014B1870704700BF46
:10051000E8090720044B1A88044B1A80044B1A88F8
:10052000044B1A80704700BFEE090720EA09072034
:10053000E6090720EC090720144B1A68144B1A60CF
:10054000144B1B68C3F1B40313490B60A2F5B471DB
:100550000029B8BF49421944104A81FB0223CA1836
:10056000CB17C3EB22234FF4B47202FB1311A1F596
:10057000B4710029B8BF4942B429C8BFA1F5B4710C
:10058000074B1960064B1868704700BF4C010720E5
:100590004C0B0720200B0720400B0720B7600BB641
:1005A000500B072000000000F8B504461A4B98478E
:1005B0001A4B6200111933F81170194909887F1A12
:1005C00018490F60144403EB44035888164B1B88EA
:1005D000C01A164B1860164EB04704460D463846F2
:1005E000B04702460B4620462946124CA047124B04
:1005F000C3E900010022114B114CA04704A3D3E929
:100600000023104CA047104B9847104B1860F8BDC2
:100610007A008BFCFA21094015050800E80A07203A
:10062000EA090720440B0720EC090720C00A07202D
:10063000E933080085170800380B07200080664062
:10064000B534080009370800E9390800200B0720F5
:100650002DE9F84F144B9847144E154B1868B047C6
:1006600004460D46134B1868B04780468946DFF8AC
:1006700050A0DFF850B04046494642464B46D0476E
:1006800006460F462046294622462B46D0470246BC
:100690000B4630463946D847074B9847074BC3E9C6
:1006A0000001BDE8F88F00BFA9050800E933080084
:1006B000440B0720C00A072089170800E00A07201A
:1006C000B53408005131080009480368094A116827
:1006D000591A01F5B471084A81FB0223CA18CB17D5
:1006E000C3EB22234FF4B47202FB13110160704775
:1006F0004C010720500B0720B7600BB6000000002C
:100700002DE9F04F87B0CDE90001DFF8EC902C4BDC
:100710001868C847DFF8E48027A3D3E90023C0475F
:100720000022284B284CA047CDE90201274BC3E902
:100730000001274E3788274B1F80274B1D88274BEA
:100740001D80274B9847CDE904013846C8478246AB
:100750008B46DDE90401DDE90023C04702460B4674
:10076000504659461F4CA047DFF894B0D8471FFAAF
:1007700080FAA6F800A0DDE902011B4B9847064667
:100780000F462846C84704460D4630463946DDE93F
:100790000023C04702460B4620462946134CA0477B
:1007A000D84780B20C4C2080114BA3F800A0114B0D
:1007B000188007B0BDE8F08F7A008BFCFA21094061
:1007C0004C0107200080664009370800380B0720DD
:1007D000EA090720300B0720EC090720C80A072088
:1007E000651608004D310800F11608005131080067
:1007F000EE090720E6090720E9330800B5340800B0
:10080000393A0800AFF3008008B5002807DA00285D
:10081000B8BF4042044B9847044B984708BD044B6F
:100820009847024B984708BDB1140800C906080054
:100830007915080000000000F8B5234B9847234BBA
:100840001F88234B1B88FF1A224B1F60224B1888DE
:10085000224B1B88C01A224B1860224EB047044618
:100860000D463846B04702460B46204629461E4CE8
:10087000A0471E4BC3E9000100221D4B1D4CA047A1
:100880000FA3D3E900231C4CA0471C4B9847C0F191
:10089000B4001B4B18601B4B1B6898420CD01A48C5
:1008A0001A4B98471A4B9847154B1A68154B1A6004
:1008B000184B9847184B9847F8BD00BFAFF300801E
:1008C0007A008BFCFA21094015050800EA09072087
:1008D000300B0720440B0720EC090720C80A07202B
:1008E000C00A0720E933080085170800380B0720E5
:1008F00000806640B534080009370800E93908006F
:10090000480B07204C010720386A08009540080072
:10091000E11308003905080009080800AFF300805A
:1009200010B584B0114B1B786BB1114803210170D5
:1009300002224270042383700024C47000940D4886
:100940000D4CA04710E00A480321017000224270BC
:1009500002238370C27004240471427100920194D6
:1009600002920648044CA04704B010BDE8090720D5
:10097000180B0720486A080095400800586A0800CC
:1009800070B5494B1B7843B9484B98470022484BF8
:100990001A700622474B1A7002E0464B1B78ABB127
:1009A000414C434D2B78E05C434B9847434B984771
:1009B000434B1860434B98472B78E05C424B984779
:1009C000424BC3E9000100223A4B1A70384B1B78A6
:1009D000354AD05C3C4B984704460D463C4B186862
:1009E0003C4B984702460B46204629463A4CA047C6
:1009F00000283CD02E4B1B782B4AD05C324B9847BA
:100A000004460D46314BD3E900010022334B344EEE
:100A1000B04702460B4620462946324CA04730B12B
:100A2000314B9847002200232849C1E900232F4B6E
:100A300018682F4B1D68451B2E4B1D602E4C254BF7
:100A4000984717A3D3E90023254EB047C4E9000116
:100A500028462A4B9847D4E90001294B98470022A1
:100A60000023C4E900230020124B187070BD104B06
:100A70001B780D4AD25C42B10120224A10700D4A07
:100A8000107003440A4A137070BD01211D4A117091
:100A90000220084A10700B44054A137070BD00BF55
:100AA000AE47E17A14AEF53F180B07202109080084
:100AB000E4090720F8090720A905080039050800FE
:100AC000C40A07200908080051060800F009072099
:100AD00050010720E9330800D53908000000E03F45
:100AE000B53408009939080039080800FC090720C6
:100AF000000A0720240B0720D00A07204904080019
:100B000001070800E5090720044BDB6B13F0805F49
:100B100003D0034B1A6801321A60704700120E406E
:100B2000FC090720044BDB6B13F4000F03D0034BCD
:100B30001A6801321A60704700120E40000A07203E
:100B400070B582B006460D46144600200D4B9847FE
:100B500030460D4B98472846214601220B4B9847BB
:100B60000B4B00932846314622464023094EB0479E
:100B700028462146084B98474FF40052074B1A600D
:100B800002B070BD49110800F1100800150D0800F1
:100B9000090B08007D0F0800A10D080000E100E02E
:100BA00070B582B006460D46144600200D4B98479E
:100BB00030460D4B98472846214601220B4B98475B
:100BC0000B4B00932846314622464023094EB0473E
:100BD00028462146084B98474FF40052074B1A60AD
:100BE00002B070BD49110800F1100800150D080091
:100BF000250B08007D0F0800A10D080000E100E0B2
:100C000010B50E480E4B984700203E210D4B9847DB
:100C10000D4CA0470028FCD00C4B98470C4A0D4BBC
:100C20009A620D4CA0470028FCD010200B4B98472F
:100C30000B4B98470148024B984710BD00BD01057A
:100C4000B10007206D100800C1100800D110080085
:100C5000013F0D2000060E40E110080009100800B9
:100C60002112080010B54FF40042134B5A600B20BC
:100C7000124CA0470C20A0470D20A0470E20A047F3
:100C80003B204FF060510E4CA04755204FF0605173
:100C9000A04756204FF06051A04768200949A0475F
:100CA0005C200949A04709484FF440714FF00062A9
:100CB000074B984710BD00BF501A0E40F1100800B6
:100CC000B10D08007900002801000028000E0E4038
:100CD000850E08004264B1F1805F16D004D8C1B11E
:100CE000B1F1006F0AD013E0B1F1405F11D0B1F162
:100CF000605F0ED0B1F1205F0AD17047036F016FC2
:100D00000B4023EA0203036702E0036F1343036708
:100D100042607047416412F0010F14BF41660166E2
:100D200012F00A0F14BF0162416212F0020F02D0EA
:100D3000C0F8801004E012F0080F18BFC0F884104B
:100D400041610160704700BF10B44164019C0CB167
:100D5000416600E001660BB1016500E041650AB142
:100D6000016300E04163016101605DF8044B70477D
:100D700012F0100F10D0C0F8B01012F0200F14BFF6
:100D8000C0F8D410C0F8D01012F0400F14BFC0F853
:100D9000C010C0F8C4107047C0F8B410704700BF4E
:100DA000C36C0164704700BFC06C7047806C7047B3
:100DB00070B582B00D46440904F5001404F20774BE
:100DC000660201F0F044B4F1205F30D006D8B4F1EF
:100DD000006F0AD0B4F1805F18D049E0B4F1405FF1
:100DE00030D0B4F1605F2DD042E000F01F0001244C
:100DF000844030464FF0006122461F4B984715F063
:100E0000010F14BF74663466012032E000F01F0049
:100E10000124844030464FF080512246164B9847BB
:100E200015F0010F14BF74663466012021E000F054
:100E30001F010124304604FA01F12A460F4B98475E
:100E4000204616E000F01F01012405F0605205EA7B
:100E500004030093304604FA01F1B2F1605F14BF5D
:100E600000220122C5F38003054DA847204600E07B
:100E7000002002B070BD00BFD50C0800150D0800A1
:100E8000490D0800F0B583B007460E46154602F03E
:100E9000F044B4F1205F26D006D8B4F1006F0AD038
:100EA000B4F1805F13D034E0B4F1405F1FD0B4F1EF
:100EB000605F1CD02DE04FF000613246164B984722
:100EC00015F0010F14BF7E663E66012022E04FF050
:100ED00080513246104B984715F0010F14BF7E66C3
:100EE0003E66012016E00D4B9847012012E005F008
:100EF000605205F00103009338463146B2F1605F5D
:100F000014BF00220122C5F38003054CA047012035
:100F100000E0002003B0F0BDD50C0800150D08005E
:100F2000490D08002DE9F04104460E46104B984744
:100F3000054620460F4B9847054017D00E4F07F146
:100F40000C046C3754F80C3CB3420AD154F8081C1A
:100F5000294206D023683046984754F8083C25EAD1
:100F60000305BC4202D01034002DEBD1BDE8F08166
:100F7000A90D0800AD0D0800080A0720F8B50B4CB4
:100F80002468062C10D80A4F2601BD19B9516A6091
:100F9000AB600699E960013404490C6011461A46B9
:100FA000044B98470020F8BD0120F8BD040A072033
:100FB000080A0720710D080008B502480B21024BF2
:100FC000984708BD000E0E40250F080008B50248DE
:100FD0000C21024B984708BD00100E40250F080059
:100FE00008B502480D21024B984708BD00120E407B
:100FF000250F080008B502480E21024B984708BD8E
:1010000000140E40250F0800174B1A6B22F07002D7
:10101000104318639B6E13F0080F09D14FF400635F
:10102000114901E0013B19D08A6E12F0080FF9D086
:101030000D4B1A6B22F0030242F002021A63986E03
:1010400010F008000CD14FF40063074901E0013BA8
:1010500008D08A6E12F0080FF9D07047012070474F
:10106000002070470120704700060E4038B111493A
:101070000B6A114A1A40114B13430B6270470D4A19
:10108000136A23F45C1323F0030343F45C1343F06B
:101090000103090289B20B431362936E13F0010F2F
:1010A000FBD0044A136A43F09B7343F4803313620A
:1010B000704700BF00060E40FCFFC8FE020037016B
:1010C000024B986E00F48030704700BF00060E405F
:1010D0004FF00052014B9A62704700BF00060E406D
:1010E000024B986E00F00200704700BF00060E40F1
:1010F0002C2820D81F280DD8124B9A690123834031
:101100001A40934219D0012303FA00F00D4B1861E5
:10111000002070470B4BD3F808212038012383406F
:101120001A4093420BD0012303FA00F0054BC3F899
:101130000001002070470120704700207047002008
:10114000704700BF00060E4020B1054A054BC3F8AA
:10115000E4207047044A034BC3F8E420704700BF03
:1011600001434D5000060E4000434D50FEE700BFC6
:1011700010B51E4B1E4A9A4203D01E4B1B4A9A4280
:1011800004D31D4B1D4A9A420FD31AE01C4B1D4C31
:10119000E41A24F0030404340023144814495A5870
:1011A0001A500433A342FAD1EBE7174B1749C91A77
:1011B00021F003011A1D1144002243F8042F8B4231
:1011C000FBD1134A22F0604323F07F0311498B6067
:1011D00002F16042B2F5801F03D28A6842F00052E9
:1011E0008A600D4B98470D4B9847FEE7000007209B
:1011F000146D0800C4090720580B0720C8090720F0
:1012000004000720C7090720C4090720530B072043
:101210000000080000ED00E045400800A1150800AE
:101220003E4B1B6B03F00303032B5FD8DFE803F097
:10123000020E2B2B3A4B5B6913F0800F14BF4FF457
:1012400000424FF4FA42374B1A604FE0334B1B6AAF
:1012500013F0807F03D0344A324B1A6046E0334AA1
:10126000304B1A602D4B1B6A03F07003102B02D019
:10127000202B04D03AE02E4A2A4B1A6036E02A4A44
:10128000284B1A6032E0254B1B6A13F0807F03D095
:10129000254A244B1A6012E0244A224B1A601F4B45
:1012A0001B6A03F07003102B02D0202B04D006E041
:1012B0001F4A1C4B1A6002E01B4A1A4B1A60174B5C
:1012C0001B6B03F00303022B0DD1144B986A996A30
:1012D000144BC0F30A401A6800FB0222C9B2B2FBE9
:1012E000F1F21A6002E0134A0E4B1A600B4B1B6BB3
:1012F00003F07003702B07D10A4B1A680E49A1FB4B
:10130000020252081A607047044B196B054BC1F377
:1013100002111A68CA401A60704700BF00060E40EA
:10132000101A0E4054010720001BB70000093D00B1
:1013300000127A00001C4E0EABAAAAAA094B1B6829
:1013400013B9094A074B1A60064B1B681A1807495C
:10135000914204DB1046034A1060184670474FF074
:10136000FF307047780A0720582B0720FC7F0820A1
:101370004FF0FF30704700BF4FF400534B60002028
:10138000704700BF01207047002070470000000038
:10139000F8B50D4C4FF40045256309A3D3E90023AC
:1013A0000A4916461F46E1FB006730463946084A9F
:1013B0000023084EB047084B98476563F8BD00BF4F
:1013C0007F9FD50000000000000E0E4000BD01050B
:1013D000809FD500793A080001000720AFF3008014
:1013E00038B540F2DC50064DA84741F6C810054C10
:1013F000A04740F2DC50A8470348A04738BD00BFD3
:10140000911308000100072080EE36000000000064
:10141000F8B504461E4B984720461E4B98471AA322
:10142000D3E900231C4CA0471C4B98470028B8BFA9
:1014300003308410013C24EAE4740023184A13604A
:10144000184A13609C420ADD4FF4A060164DA8476D
:1014500041F6C810154B984740F27C60A847104BE6
:101460001B689C4208DD41F27077104E0C4D3846E7
:10147000B0472B689C42FADC054B98470023084A8A
:101480001360084A1360F8BD1F85EB51B81EF13F89
:10149000E1130800E9330800B5340800E939080011
:1014A000FC090720000A072091130800010007200B
:1014B00070B504462D2806DD2D26064D2D3C304600
:1014C000A8472D2CFADC082CACBF20460820014B85
:1014D000984770BD11140800F8B504461E4B984794
:1014E00020461E4B98471AA3D3E900231C4CA04763
:1014F0001C4B98470028B8BF03308410013C24EAF5
:10150000E4740023184A1360184A13609C420ADDF1
:1015100040F2A460164DA84741F6C810154B9847F5
:101520004FF4A060A847104B1B689C4208DD41F2B5
:101530007077104E0C4D3846B0472B689C42FADC51
:10154000054B98470023084A1360084A1360F8BD0A
:101550001F85EB51B81EF13FE1130800E933080085
:10156000B5340800E9390800FC090720000A072003
:10157000911308000100072070B504462D2806DDF0
:101580002D26064D2D3C3046A8472D2CFADC082C84
:10159000ACBF20460820014B984770BDD914080005
:1015A00070B5234B9847234B9847234B9847234BC1
:1015B0004FF400421A61C3F8A02003F5C06302256E
:1015C0001D61C3F8A0501E4C4FF080632361C4F826
:1015D000A0304FF000736361C4F8A0300D202146A5
:1015E0004FF08052174B98470D2021464FF40002D0
:1015F000154B98471548164B9847032064214FF424
:101600009672144CA04728464FF496710A46A0479C
:1016100004204FF496716422A04700200E4B984797
:101620000E4E0F4D0A4CB0472846A047FBE700BFBF
:10163000010C0800650C080099020800000E0E401D
:1016400000120E40410B0800A10B0800001BB70060
:1016500001000720C90408000905080081090800E5
:10166000C0C62D0070B5204E21F00044B44286B0B3
:1016700002460B4619DD1D4DAC4203DD01F066FD4F
:1016800006B070BD02AA00F0CFF900F003000128F7
:101690001BD002280FD000B301230093DDE9020123
:1016A000DDE9042301F0A4F9EAE70022002300F0B9
:1016B0009BFC06B070BDDDE90201DDE9042300F00A
:1016C00093FC01F1004106B070BD0090DDE90423F8
:1016D000DDE9020101F08CF9F3E7DDE90201DDE962
:1016E000042300F081FCCBE7FB21E93FFFFFEF7F04
:1016F00070B5224E21F00044B44286B002460B463B
:101700001ADD1F4DAC4203DD01F020FD06B070BDB7
:1017100002AA00F089F900F0030001281DD0022878
:1017200012D008B3DDE90201DDE9042300F05CFC1E
:1017300001F1004106B070BD002300930022002398
:1017400001F056F906B070BD01230093DDE90201F6
:10175000DDE9042301F04CF9EAE7DDE90201DDE906
:10176000042300F041FCD1E701230093DDE90201ED
:10177000DDE9042301F03CF9C8E700BFFB21E93FA4
:10178000FFFFEF7F00F058B82DE9F0478AB004461C
:101790000D4600F069FBDFF898A006469AF9003084
:1017A0000F4601330FD02046294601F015FC50B1F9
:1017B0004FF000084FF0000942464B4620462946AC
:1017C00002F0EAF820B9304639460AB0BDE8F087A1
:1017D00016499AF8006001220023CDE90445CDE9BD
:1017E000024501910092089366B9CDE906896846E1
:1017F00001F01AFC80B1089B9BB9DDE906010AB033
:10180000BDE8F0874046494642464B4601F07CFF22
:10181000022ECDE90601EAD102F00EFC212303607D
:10182000E9E702F009FC089B0360E6E76C6A080040
:1018300058010720000000002DE9F047C2F100091F
:1018400049EA020923F00048DFF8D4C148EAD9790F
:1018500082B0E14514461D46CDE900010F4647D848
:10186000C0F1000A4AEA000A21F0004949EADA7A9E
:10187000E2453DD803F1404C0CF5801C5CEA020CBB
:101880004CD04FEAA37A0AF0020A4AEAD17A59EA1E
:10189000000136D058EA04013AD06149884551D058
:1018A0005F49894534D0C8EB09084FEA2858B8F198
:1018B0003C0F43DC002D70DBDDE9000101F024FF6B
:1018C00001F0F6FA01F04CF9BAF1010F62D0BAF169
:1018D000020F52D0BAF1000F10D03FA3D3E900237A
:1018E00001F034FC3EA3D3E9002301F02FFC05E016
:1018F00010461946DDE9002301F02AFC02B0BDE8DC
:10190000F087BAF1030FC5D8DFE80AF00D0D141007
:10191000002F2EDB34A1D1E90001EFE702B0BDE8D2
:10192000F04701F01DB9DDE90001E7E730A1D1E999
:101930000001E3E72AA1D1E90001DFE72AA1D1E90B
:101940000001C1E7C1452ED0BAF1030FA8D801A10B
:1019500051F82AF06D1908006519080035190800BA
:101960002D19080000204FF00041C7E7002000219A
:10197000C4E721A1D1E90001C0E717A3D3E90023FF
:1019800001F0E4FB02460B4615A1D1E9000101F08C
:10199000DDFBB3E701F10041B0E718F13C0F8BDA52
:1019A0000020002190E7BAF1030FB1D8DFE80AF078
:1019B00006020E0A12A1D1E900019FE712A1D1E9A6
:1019C00000019BE712A1D1E9000197E712A1D1E93B
:1019D000000193E7AFF30080075C143326A6A13C17
:1019E000182D4454FB210940182D4454FB21F93F84
:1019F000182D4454FB2109C0182D4454FB21F9BF74
:101A0000182D4454FB21E9BF182D4454FB21E93F14
:101A1000D221337F7CD902C0D221337F7CD90240CE
:101A20000000F07FAFF300802DE9F04F964B21F0DE
:101A300000469E4291B004460D468B46904640F3C8
:101A40008180924B9E4226DC85A3D3E900230029A6
:101A500040F3A08101F07AFB8D4B04469E420D4677
:101A600000F0858080A3D3E9002301F06FFB0246DC
:101A70000B46C8E900232046294601F067FB7AA3FC
:101A8000D3E9002301F062FB0127C8E902013846CF
:101A900011B0BDE8F08F7F4B9E4240F385807E4BB6
:101AA0009E425ADC4FEA2659A9F21649A6EB09557F
:101AB0002946044601F098FF01F096FC06460F46C1
:101AC00002460B4620462946CDE90A6701F03EFB57
:101AD0000022724B01F0EEFC0F46064601F084FF37
:101AE00001F082FC02460B4604460D46304639465C
:101AF000CDE90C4501F02AFB0022684B01F0DAFC2D
:101B000000220023CDE90E0101F03CFF002800F087
:101B10006D81002320462946002201F033FF002872
:101B200014BF012302235E480221019000914A461E
:101B30000AA8414600F07CFBBBF1000FC0F24881CF
:101B4000074606E000220023C8E90045C8E9022351
:101B50000027384611B0BDE8F08F02460B4601F071
:101B6000F5FA0027C8E90201C8E90001F1E740A33E
:101B7000D3E9002301F0EAFA3FA3D3E900230446A6
:101B80000D4601F0E3FA02460B46C8E90023204661
:101B9000294601F0DBFA38A3D3E9002301F0D6FA95
:101BA0000127C8E90201D4E701F082F934A3D3E99F
:101BB000002304460D4601F07DFC0022394B01F064
:101BC000C7FA01F011FF074601F00EFC24A3D3E988
:101BD0000023CDE9060101F06DFC02460B462046CC
:101BE000294601F0B3FA20A3D3E90023CDE902018D
:101BF000DDE9060101F05EFC1F2FCDE90401DDE9FE
:101C0000020153DC284B7A1E53F82230B3424DD0E8
:101C1000DDE9042301F09AFA04460D46C8E90045BF
:101C2000DDE9020122462B4601F090FADDE90423AA
:101C300001F08CFABBF1000FC8E9020189DA2646EF
:101C400001F1004305F100447F42C8F80060C8F884
:101C50000440C8F80800C8F80C307AE7AFF30080F9
:101C600000004054FB21F93F3163621A61B4D03D5A
:101C70000000601A61B4D03D7370032E8A19A33B33
:101C800083C8C96D305FE43FFB21E93F7BD9024047
:101C9000FB21F93FFB213941FFFFEF7F000070413D
:101CA000F46A08000000E03F746A0800DDE90423DC
:101CB00001F04CFA3615C1F30A53F31A04460D46E7
:101CC000102BC8E90045ABDD5BA3D3E90023DDE9B8
:101CD000060101F0EFFB04460D4622462B46DDE9E6
:101CE000020101F033FACDE90801DDE90823DDE95D
:101CF000020101F02BFA22462B4601F027FA50A3ED
:101D0000D3E9002304460D46DDE9060101F0D2FBCC
:101D100022462B4601F01AFACDE90401DDE904233D
:101D2000DDE9080101F012FAC1F30A53F61A04467C
:101D30000D46312EC8E9004578DD43A3D3E90023E1
:101D4000DDE9060101F0B6FB04460D4622462B46AE
:101D5000DDE9080101F0FAF9CDE90201DDE902232C
:101D6000DDE9080101F0F2F922462B4601F0EEF917
:101D700037A3D3E9002304460D46DDE9060101F04F
:101D800099FB22462B4601F0E1F9CDE90401DDE99A
:101D900002013DE701F0DCF9314B04469E420D465D
:101DA00026D02DA3D3E9002301F0D2F902460B4639
:101DB000C8E900232046294601F0C8F926A3D3E943
:101DC000002301F0C5F94FF0FF37C8E90201C0E672
:101DD000D8F80420D8F80C3002F1004203F1004397
:101DE0004742C8F80420C8F80C30B2E603239AE64C
:101DF00011A3D3E9002301F0ABF911A3D3E9002328
:101E000004460D4601F0A4F902460B46C8E900233A
:101E10002046294601F09AF909A3D3E9002301F0ED
:101E200097F94FF0FF37C8E9020192E6DDE9082390
:101E3000CDE90223F4E600BF0000601A61B4D03D92
:101E40007370032E8A19A33B0000002E8A19A33B4E
:101E5000C14920259A837B393163621A61B4D03D30
:101E6000FB21F93FAFF3008021F0004C2DE9F8434E
:101E70004FEA1C5CDFF86C814FEA0C5CC4450646F7
:101E80000F460B46024600F08F8000296FDD0F15CC
:101E900078D0A7F2FF37C3F31303F90743F4801395
:101EA00060D4D10F4FF0000C01EB43037F105200C0
:101EB000654616204FF400116C189C424FEAD2760A
:101EC0004FEA420202DC1B1B65188C44013806EB0A
:101ED00043034FEA5101EFD1804620264FF00041E5
:101EE00009E023D0D40F013E4FEA510104EB430334
:101EF0004FEA42021ED0AB4201EB0804F1DD04F0D0
:101F00000049B9F1004F04EB010809D0A9465B1B59
:101F1000944288BF03F1FF33121B08444D46E1E7AA
:101F2000B8F1000FF2DB05F10109F0E79442E6D9C0
:101F30001D46D7E71A4304D0431C41D000F00103EB
:101F4000184446084FEA6C031CF0010F03F17F535D
:101F500003F5001318BF46F0004603EB0751304667
:101F6000BDE8F883D10F01EB4303520099E721F05C
:101F70000043034322D051BB0F46D30A153F5205FD
:101F8000002BFAD013F480111DD15B00D80201F1AF
:101F90000101FAD5C1F10100C1F1200422FA04F4D3
:101FA00007448A40234374E702460B4601F082FA55
:101FB00032463B4601F0CCF8BDE8F883BDE8F88333
:101FC0000CF1010CBEE7202401200021E6E70246C7
:101FD0000B4601F0BBF802460B4601F095FBBDE84D
:101FE000F88300BF0000F07F2DE9F04F21F0004999
:101FF000B9F1795F85B006460F4692469B466BDA8B
:1020000001F0F2FC002800F0EA8032463B46304600
:10201000394601F04FFA74A3D3E9002304460D4674
:1020200001F048FA72A3D3E9002301F091F82246A7
:102030002B4601F03FFA70A3D3E9002301F086F8A4
:1020400022462B4601F036FA6DA3D3E9002301F0B6
:102050007FF822462B4601F02DFA6BA3D3E900232B
:1020600001F074F822462B4601F024FA68A3D3E964
:10207000002301F06DF822462B4601F01BFACDE952
:102080000001204629460022634B01F013FADDE9E6
:102090000023804689462046294601F00BFA524625
:1020A00004460D465B463046394601F003FA0246C7
:1020B0000B462046294601F049F802460B464046A9
:1020C000494601F043F802460B460020534901F00F
:1020D0003DF805B0BDE8F08F02460B4601F0EAF985
:1020E00041A3D3E9002304460D4601F0E3F940A3E0
:1020F000D3E9002301F02CF822462B4601F0DAF94F
:102100003DA3D3E9002301F021F822462B4601F03C
:10211000D1F93BA3D3E9002301F01AF822462B465C
:1021200001F0C8F938A3D3E9002301F00FF82246E3
:102130002B4601F0BFF936A3D3E9002301F008F8DC
:102140002B46224601F0B6F9354BCDE90001994501
:1021500097DD344B0022994539DCA9F500130022A4
:1021600000202E499046994600F0F0FFCDE902018B
:10217000204629460022284B01F09CF942464B4656
:1021800000F0E4FFDDE90023804689462046294629
:1021900001F090F9524604460D465B4630463946FA
:1021A00001F088F902460B462046294600F0CEFF92
:1021B00002460B464046494600F0C8FF02460B4621
:1021C000DDE9020100F0C2FF05B0BDE8F08F164B5B
:1021D0004FF00008CDE90223DFF85090C8E70F491F
:1021E000002005B0BDE8F08FD43888BEE9FAA8BD5C
:1021F000C4B1B4BD9EEE213EAD529C804F7E923E56
:102200009015CB19A001FA3E7751C1166CC1563F0B
:102210004C5555555555A53F0000E03F0000F03F97
:102220003233D33F0000E93F0000E73F0000D23FD8
:102230002DE9F04F7B4DD41E85FB0465E417C4EBFC
:10224000A505ADF51D7D25EAE5750E959946764CFB
:10225000EB43A69D09F1FF3654F8254004960C94F3
:1022600007900E9C049D0C9803EB430302EBC30301
:10227000A61B2C180B910A9317D4A7983444013449
:102280000DF1880800EB8605002709E0E85901F008
:10229000ABF80136A642E8E9020107F1040704D0D1
:1022A000002EF3DA00200021F3E70C9C002C2DDB3C
:1022B0000C9D74AE06EBC50B24A800EBC90A0DF506
:1022C000E478CDF80CB0049C002CC0F29581079DF9
:1022D0005746A5F1080B00240025002677E90223C4
:1022E000FBE9020101F0E6F802460B4620462946CA
:1022F00000F02EFF01364E4504460D46EED1E8E9CA
:102300000245039C0AF1080AA045DCD10C9D10ACE3
:1023100004EB850602940F960395039E9CABF60092
:1023200033440696039E53E92845002E2EDD069E73
:102330000DF5E87AB244039E0DF13C0B0BEB860BD6
:102340000DF13C080022394B2046294601F0B2F835
:1023500001F04AFB01F048F80022354B06460F46D3
:1023600001F0A8F802460B462046294600F0EEFE92
:1023700001F03AFB324648F8040F3B467AE9020185
:1023800000F0E6FED84504460D46DBD1204629463E
:102390000A9A00F04DFE00224FF07F5304460D468E
:1023A00001F088F800F088FD0022224B01F082F84D
:1023B00002460B462046294600F0C8FE04460D465C
:1023C00001F012FB824601F00FF802460B46204650
:1023D000294600F0BBFE0A9C0646002C0F4640F33F
:1023E000F280039D10A8691E50F82130C4F1180036
:1023F00043FA00F202FA00F0C4F117051B1A43FA7F
:1024000005F510AC44F821309244002D3EDD039CCC
:102410000AF1010A002C40F3F98010AB03EB8401B0
:10242000002411E0ABAAAA2AFC6B08000000703E51
:102430000000704100002040C2F1807012B143F8EA
:10244000040C01248B420DD053F8042B002CF3D044
:10245000C2F1FF1202F57F428B4243F8042C4FF089
:102460000104F1D10A9800280DDD012800F0B380A5
:10247000022808D1039910A84B1E50F82320C2F35C
:10248000150240F82320022D00F0848030463946A2
:102490000022002301F076FA002800F0B980039CA6
:1024A0000C9E04F1FF3846450DDC10A800EB8403B8
:1024B0000F98002253F8041D834242EA0102F9D129
:1024C000002A40F044820C9C10AD621E55F8223068
:1024D000002B40F0548205EB8202012352F8041DC8
:1024E00001330029FAD0039E039C1E44631CB342AF
:1024F0000D9649DC049D0E9E2B44214622460D9DDF
:102500003244494424AE03F1FF3B2B1B06EBC104CC
:102510000994A79D069C06EBCB0B74AE05EB8202DB
:10252000DB0026440392089306964FF00008039DB3
:1025300008F1080855F8040F039500F055FF049EB4
:10254000EBE90201002E22DB079C099FA4F1080A97
:10255000474400240025002677E90223FAE9020116
:1025600000F0A8FF02460B462046294600F0F0FD89
:1025700001364E4504460D46EED1069EE6E902457B
:10258000089C0696A045D2D10D9D0395C5E6002472
:102590000025F2E732463B460020924900F0D6FD86
:1025A00006460F46002C3FF471AF0A9A00208D4971
:1025B00000F03EFD02460B463046394600F0C6FDAF
:1025C00006460F4662E710D1039D10A86B1E50F817
:1025D0002350ED1519E7039910A84B1E50F823203E
:1025E000C2F3160240F823204DE700227E4B01F093
:1025F000E7F920B9054649E7002400257FE6039C5A
:102600000225002C0AF1010A3FF707AF002429E751
:102610000A9C3046624239460695CDF81CA000F06F
:1026200007FD0022714B04460D4601F0C9F9002850
:1026300000F0BB8100226E4B2046294600F03AFF95
:1026400001F0D2F9064600F0CFFE0022674B00F001
:1026500031FF02460B462046294600F077FD01F087
:10266000C3F9039C0A9D10A904F10108183541F82B
:1026700024000A9541F828600A9A0020594900F080
:10268000D7FCB8F1000F04460D465ADB08F10106ED
:1026900010A874A9039600EB860701EBC60657F84D
:1026A000040D00F0A1FE22462B4600F003FF00229D
:1026B00066E902014E4B2046294600F0FBFE029AD5
:1026C000044697420D46EAD108F1005B0BF1FF3B4F
:1026D00074AB0DF5987ACDF82080DDF8308003EBEF
:1026E000CB0B4FF00009CDF810A0B8F1000FC0F2ED
:1026F0002881DFF800A15F4600240025002601E0C4
:102700004E4510DCF7E90223FAE9020100F0D2FE9F
:1027100002460B462046294600F01AFD0136B04518
:1027200004460D46ECDA049EABF1080B06EBC90338
:10273000C3E90045039C09F10109A145D5D1DDF8A4
:102740002080A69D032D00F29780DFE815F0DA00C7
:102750009C009C000400B8F1000F40F312810DF5BD
:10276000987A08F101030AEBC3034FEAC80B0393FD
:1027700099460AEB0B030DF59C7CD3E9006701E059
:1027800026462F4659E9044532463B46204629460F
:10279000CDF804C0CDE9044500F0DAFC04460D464E
:1027A00022462B46DDE9040100F0D0FC32463B46D0
:1027B00000F0CEFC69E90201DDF804C049E90245F8
:1027C000E145DDD1B8F1010F40F30D81DDF80CC01A
:1027D0000AEB0B03CDF810A00AF1100BD3E900456A
:1027E000E2460BE00000F03F0000E03F00007041D7
:1027F0000000703E086C080034463D465AE90489E2
:1028000022462B464046494600F0A2FC06460F46AB
:1028100032463B464046494600F098FC22462B464D
:1028200000F096FC6AE90201DA454AE90267E3D161
:10283000DDF810A0039C0020002174E9022300F0C1
:1028400087FCA345F9D1069D002D00F0A280DAF89F
:102850000450DAF80C400B9EDAF80020DAF8083061
:1028600005F1004504F1004401F100417560F46098
:102870003260B36030617161079C04F007000DF5B0
:102880001D7DBDE8F08FB8F1000FC0F2A7800DF5F7
:10289000987A08F10104002200230AEBC4041046D0
:1028A000194674E9022300F053FC5445F9D102465D
:1028B0000B46069E002E47D0104603F100410B9CAC
:1028C000C4E90001DAE9000100F040FCB8F1000FB2
:1028D00007DD0AEBC808FAE9022300F039FCC2451B
:1028E000F9D1069D002D6AD00B9E024601F10043EE
:1028F000C6E90223079C04F007000DF51D7DBDE825
:10290000F08FB8F1000F66DB08F101044CAD05EB68
:10291000C4040020002174E9022300F019FCAC4239
:10292000F9D1069C002C50D00B9D024601F10043CA
:10293000C5E90023079C04F007000DF51D7DBDE8E7
:10294000F08F00240025EEE610461946B7E70A9EF0
:10295000069510AD55F82830183ECDF81CA00A9603
:10296000002B7FF489AE05EB8803324653F8041D33
:1029700008F1FF38183A0029F8D00A927CE60123C2
:10298000B1E5069D002000210DF5987A002D7FF419
:102990005EAF0B9EDAE90023C6E90401DAE9020121
:1029A000C6E90023C6E9020166E72046294601F090
:1029B0001BF8DDF80C8010AA42F828005CE60B9E9C
:1029C00002460B46C6E9022394E70B9D02460B46DE
:1029D000C5E90023AEE700200021A2E70022002382
:1029E0000DF5987A65E7002000212CE70000000033
:1029F0002DE9F04F21F00046B6F1795F85B004462D
:102A00000D469046994604DA00F0EEFF002800F0EB
:102A1000848022462B462046294600F04BFD224664
:102A20002B4606460F4600F045FD3FA3D3E90023A1
:102A300082468B463046394600F03CFD3CA3D3E944
:102A4000002300F083FB32463B4600F033FD3AA3FF
:102A5000D3E9002300F07CFB32463B4600F02AFD20
:102A600037A3D3E9002300F071FB32463B4600F068
:102A700021FD35A3D3E9002300F06AFB0E9BCDE9CD
:102A80000201002B33D0404649460022324B00F071
:102A900011FDDDE90223CDE900015046594600F061
:102AA00009FD02460B46DDE9000100F04FFB32460E
:102AB0003B4600F0FFFC42464B4600F047FB24A398
:102AC000D3E9002306460F465046594600F0F2FC73
:102AD00002460B463046394600F03AFB02460B46AA
:102AE0002046294600F032FB05B0BDE8F08FDDE955
:102AF00002233046394600F0DDFC15A3D3E900235C
:102B000000F024FB52465B4600F0D4FC22462B46E4
:102B100000F01EFB05B0BDE8F08F2046294605B049
:102B2000BDE8F08FAFF300807CD5CF5A3AD9E53DB0
:102B3000EB9C2B8AE6E55A3E7DFEB157E31DC73E6E
:102B4000D561C119A0012A3FA6F810111111813FCA
:102B5000495555555555C53F0000E03FAFF300803E
:102B60002DE9F04FB64B21F000469E4283B004465B
:102B70000D4689460FDDB3498E4200F3B38000F065
:102B8000AE80B9F1000F40F3EF8091A1D1E90001CF
:102B900003B0BDE8F08FAC4B9E4200F3BD80A3F1C3
:102BA000DE739E4240F3A7804FF0FF3C22462B4647
:102BB00020462946CDF804C000F07CFC02460B46B6
:102BC00082468B4600F076FC83A3D3E900230646B9
:102BD0000F4600F06FFC82A3D3E9002300F0B8FA9F
:102BE00032463B4600F066FC7FA3D3E9002300F0A9
:102BF000AFFA32463B4600F05DFC7DA3D3E90023EB
:102C000000F0A6FA32463B4600F054FC7AA3D3E922
:102C1000002300F09DFA32463B4600F04BFC78A3BF
:102C2000D3E9002300F094FA52465B4600F042FCE0
:102C300075A3D3E9002382468B463046394600F01F
:102C400039FC73A3D3E9002300F080FA32463B46F7
:102C500000F030FC70A3D3E9002300F077FA32468D
:102C60003B4600F027FC6EA3D3E9002300F06EFA88
:102C700032463B4600F01EFC6BA3D3E9002300F074
:102C800065FA32463B4600F015FCDDF804C002460A
:102C9000BCF1FF3F0B466BD0504659464FEACC067D
:102CA00000F056FA22462B4600F004FC674F684BB2
:102CB00037441E44D6E9002300F048FA22462B464A
:102CC00000F044FA02460B46D7E9000100F03EFA54
:102CD000B9F1000F0CDA01F10045294608E000289F
:102CE0003FF44FAF2046294622462B4600F030FAEB
:102CF00003B0BDE8F08F4EA3D3E9002300F028FA1B
:102D00000022544B00F066FE00283FF44DAF2046F1
:102D1000294603B0BDE8F08F00F0CAF84E4B0446D8
:102D20009E420D4633DCA3F550239E4200F3A5805E
:102D300002460B4600F00CFA0022464B00F006FA61
:102D4000002206460F46204629464FF0804300F0F9
:102D5000FFF902460B463046394600F0D5FC4FF0ED
:102D6000000C04460D4621E733A1D1E90001BFE77D
:102D70005046594600F0ECF922462B4600F09AFBEB
:102D800002460B462046294600F0E0F9B0E7334BF7
:102D90009E4267DC0022324B00F0D8F90022064642
:102DA0000F46204629462E4B00F084FB0022294B7B
:102DB00000F0CEF902460B463046394600F0A4FC3E
:102DC0004FF0020C04460D46F0E600BFAFF3008062
:102DD000182D4454FB21F93F11DA22E33AAD903F1C
:102DE000EB0D76244B7BA93F513DD0A0660DB13F42
:102DF0006E204CC5CD45B73FFF8300922449C23FAA
:102E00000D5555555555D53F2F6C6A2C44B4A2BF6E
:102E10009AFDDE522DDEAD3F6D9A74AFF2B0B33F36
:102E2000711623FEC671BC3FC4EB98999999C93FAE
:102E30009C7500883CE4377E182D4454FB21F9BF73
:102E4000FFFF0F440000F07FFFFFDB3F706C0800C6
:102E5000506C08000000F03FFFFFF23FFF7F03408F
:102E60000000F83F02460B4600200F4900F04CFCE2
:102E70004FF0030C04460D4698E600220B4B00F081
:102E800065F9002206460F4620462946074B00F00A
:102E90005FF902460B463046394600F035FC4FF0EC
:102EA000010C04460D4681E60000F0BF0000F03F33
:102EB00021F00041704700BF2DE9F84FC1F30A57D8
:102EC000A7F2FF36132E02460B4604460D468946EE
:102ED0008A4680461CDC002E40DB3D4F374107EA26
:102EE000010C5CEA000C18D037A3D3E9002300F0F2
:102EF0002FF90022002300F06DFD28B1002D42DBE8
:102F00002AEA07094FF0000840464946BDE8F88F15
:102F1000332E06DDB6F5806F31D010461946BDE878
:102F2000F88FA7F2134C4FF0FF3B2BFA0CFB1BEA78
:102F3000000FF2D024A3D3E9002300F009F9002206
:102F4000002300F047FD0028DED0002D22DB28EA18
:102F50000B08D14640464946BDE8F88F1AA3D3E98D
:102F6000002300F0F5F80022002300F033FD0028D4
:102F7000CAD0002D1CDB4FF00008C146C4E700F0AA
:102F8000E7F8BDE8F88F4FF4801A4AFA06F606EB28
:102F9000050AB5E7142E14D0C7F586670123033759
:102FA00003FA07F717EB040828BF05EB030ACEE77F
:102FB00025F00042074B224318BF99464FF0000806
:102FC000A2E705F1010AC2E79C7500883CE4377E60
:102FD000FFFF0F000000F0BF31F0004310B408D035
:102FE0000F4AA3F5801494420AD804205DF8044BDC
:102FF000704700280CBF022003205DF8044B704787
:10300000B3F5801F01D20320F7E7064A934201D0AF
:103010000020F2E7D0F1010038BF0020EDE700BF4B
:10302000FFFFDF7F0000F07F0020704700000000FE
:10303000C1F30A532DE9F041904606460F460A4671
:103040001BBB21F00043034334D0354B002200F07A
:1030500031FA344B064698450F463BDBC1F30A5321
:10306000363B0A46434440F2FE718B4216DD28A1EE
:10307000D1E9000132463B4600F05AF824A3D3E9D7
:10308000002300F017FABDE8F08140F2FF74A3427C
:1030900027D0434440F2FE718B42E8DC002B0BDD6D
:1030A00022F0FF4222F4E00242EA0357304639465A
:1030B000BDE8F081BDE8F08113F1350F17DA4CF26D
:1030C00050339845D3DC14A1D1E9000132463B4688
:1030D00000F02EF810A3D3E9002300F0EBF9BDE8CF
:1030E000F08102460B4600F033F8BDE8F08122F093
:1030F000FF4222F4E002363342EA035730463946B3
:103100000022094B00F0D6F9BDE8F081AFF3008052
:103110009C7500883CE4377E59F3F8C21F6EA50108
:1031200000005043B03CFFFF0000903CAFF3008034
:1031300030B403F0004321F0004243EA020130BC06
:10314000704700BF81F0004102E000BF83F0004300
:1031500030B54FEA41044FEA430594EA050F08BF32
:1031600090EA020F1FBF54EA000C55EA020C7FEAF6
:10317000645C7FEA655C00F0E2804FEA5454D4EB73
:103180005555B8BF6D420CDD2C4480EA020281EA3D
:10319000030382EA000083EA010180EA020281EA75
:1031A0000303362D88BF30BD11F0004F4FEA0131C7
:1031B0004FF4801C4CEA113102D0404261EB4101D6
:1031C00013F0004F4FEA03334CEA133302D052425C
:1031D00063EB430394EA050F00F0A780A4F1010418
:1031E000D5F1200E0DDB02FA0EFC22FA05F2801852
:1031F00041F1000103FA0EF2801843FA05F3594138
:103200000EE0A5F120050EF1200E012A03FA0EFCB6
:1032100028BF4CF0020C43FA05F3C01851EBE371E0
:1032200001F0004507D54FF0000EDCF1000C7EEBFD
:1032300000006EEB0101B1F5801F1BD3B1F5001F3B
:103240000CD349085FEA30004FEA3C0C04F101045A
:103250004FEA445212F5800F80F09A80BCF1004F83
:1032600008BF5FEA500C50F1000041EB045141EA05
:10327000050130BD5FEA4C0C404141EB010111F406
:10328000801FA4F10104E9D191F0000F04BF0146B1
:103290000020B1FA81F308BF2033A3F10B03B3F18F
:1032A00020020CDA0C3208DD02F1140CC2F10C021F
:1032B00001FA0CF021FA02F10CE002F11402D8BF7D
:1032C000C2F1200C01FA02F120FA0CFCDCBF41EA49
:1032D0000C019040E41AA2BF01EB0451294330BD18
:1032E0006FEA04041F3C1CDA0C340EDC04F11404F5
:1032F000C4F1200220FA04F001FA02F340EA0300CC
:1033000021FA04F345EA030130BDC4F10C04C4F111
:10331000200220FA02F001FA04F340EA03002946F1
:1033200030BD21FA04F0294630BD94F0000F83F43B
:10333000801306BF81F480110134013D4EE77FEA1E
:10334000645C18BF7FEA655C29D094EA050F08BF6A
:1033500090EA020F05D054EA000C04BF194610464B
:1033600030BD91EA030F1EBF0021002030BD5FEA8F
:10337000545C05D14000494128BF41F0004130BDB7
:1033800014F580043CBF01F5801130BD01F000450B
:1033900045F0FE4141F470014FF0000030BD7FEA7E
:1033A000645C1ABF194610467FEA655C1CBF0B4679
:1033B000024650EA013406BF52EA033591EA030F90
:1033C00041F4002130BD00BF90F0000F04BF002188
:1033D000704730B54FF4806404F132044FF00005BB
:1033E0004FF0000150E700BF90F0000F04BF002134
:1033F000704730B54FF4806404F1320410F000459A
:1034000048BF40424FF000013EE700BF42004FEA94
:10341000E2014FEA31014FEA02701FBF12F07F4311
:1034200093F07F4F81F06051704792F0000F14BF0E
:1034300093F07F4F704730B54FF4607401F0004552
:1034400021F0004120E700BF50EA010208BF7047A9
:1034500030B54FF000050AE050EA010208BF70479E
:1034600030B511F0004502D5404261EB41014FF407
:10347000806404F132045FEA915C3FF4DCAE4FF00B
:1034800003025FEADC0C18BF03325FEADC0C18BFF2
:10349000033202EBDC02C2F1200300FA03FC20FA43
:1034A00002F001FA03FE40EA0E0021FA02F1144490
:1034B000C1E600BF70B54FF0FF0C4CF4E06C1CEAA5
:1034C00011541DBF1CEA135594EA0C0F95EA0C0F1A
:1034D00000F0DEF82C4481EA030621EA4C5123EA8D
:1034E0004C5350EA013518BF52EA033541F48011BC
:1034F00043F4801338D0A0FB02CE4FF00005E1FB6F
:1035000002E506F00042E0FB03E54FF00006E1FBB8
:1035100003569CF0000F18BF4EF0010EA4F1FF04FB
:10352000B6F5007F64F5407404D25FEA4E0E6D413B
:1035300046EB060642EAC62141EA55514FEAC5204C
:1035400040EA5E504FEACE2EB4F1FD0C88BFBCF5C8
:10355000E06F1ED8BEF1004F08BF5FEA500E50F179
:10356000000041EB045170BD06F0004646EA01013F
:1035700040EA020081EA0301B4EB5C04C2BFD4EB71
:103580000C0541EA045170BD41F480114FF0000E6A
:10359000013C00F3AB8014F1360FDEBF002001F0D8
:1035A000004170BDC4F10004203C35DA0C341BDC52
:1035B00004F11404C4F1200500FA05F320FA04F024
:1035C00001FA05F240EA020001F0004221F0004158
:1035D00010EBD37021FA04F642EB06015EEA430ECB
:1035E00008BF20EAD37070BDC4F10C04C4F12005FB
:1035F00000FA04F320FA05F001FA04F240EA0200AE
:1036000001F0004110EBD37041F100015EEA430E7E
:1036100008BF20EAD37070BDC4F1200500FA05F29E
:103620004EEA020E20FA04F301FA05F243EA02031D
:1036300021FA04F001F0004121FA04F220EA02002C
:1036400000EBD3705EEA430E08BF20EAD37070BD72
:1036500094F0000F0FD101F00046400041EB010152
:1036600011F4801F08BF013CF7D041EA060195F034
:10367000000F18BF704703F00046520043EB0303EE
:1036800013F4801F08BF013DF7D043EA06037047DB
:1036900094EA0C0F0CEA135518BF95EA0C0F0CD0E6
:1036A00050EA410618BF52EA4306D1D181EA03012C
:1036B00001F000414FF0000070BD50EA410606BF26
:1036C0001046194652EA430619D094EA0C0F02D16B
:1036D00050EA013613D195EA0C0F05D152EA0336B0
:1036E0001CBF104619460AD181EA030101F00041CE
:1036F00041F0FE4141F470014FF0000070BD41F017
:10370000FE4141F4780170BD70B54FF0FF0C4CF4F0
:10371000E06C1CEA11541DBF1CEA135594EA0C0F0F
:1037200095EA0C0F00F0A7F8A4EB050481EA030E5C
:1037300052EA03354FEA013100F088804FEA033343
:103740004FF0805545EA131343EA12634FEA022211
:1037500045EA111545EA10654FEA00260EF00041D2
:103760009D4208BF964244F1FD0404F5407402D224
:103770005B084FEA3202B61A65EB03055B084FEAB5
:1037800032024FF480104FF4002CB6EB020E75EBB2
:10379000030E22BFB61A754640EA0C005B084FEADA
:1037A0003202B6EB020E75EB030E22BFB61A754657
:1037B00040EA5C005B084FEA3202B6EB020E75EBA2
:1037C000030E22BFB61A754640EA9C005B084FEA1A
:1037D0003202B6EB020E75EB030E22BFB61A754627
:1037E00040EADC0055EA060E18D04FEA051545EA16
:1037F00016754FEA06164FEAC30343EA52734FEABF
:10380000C2025FEA1C1CC0D111F4801F0BD141EA37
:1038100000014FF000004FF0004CB6E711F4801F9C
:1038200004BF01430020B4F1FD0C88BFBCF5E06F7C
:103830003FF6AFAEB5EB030C04BFB6EB020C5FEA8C
:10384000500C50F1000041EB045170BD0EF0004EE1
:103850004EEA113114EB5C04C2BFD4EB0C0541EA13
:10386000045170BD41F480114FF0000E013C90E610
:1038700045EA060E8DE60CEA135594EA0C0F08BFD4
:1038800095EA0C0F3FF43BAF94EA0C0F0AD150EAD3
:1038900001347FF434AF95EA0C0F7FF425AF104666
:1038A00019462CE795EA0C0F06D152EA03353FF48E
:1038B000FDAE1046194622E750EA410618BF52EA0B
:1038C00043067FF4C5AE50EA41047FF40DAF52EADF
:1038D00043057FF4EBAE12E74FF0FF3C06E000BF7C
:1038E0004FF0010C02E000BF4FF0010C4DF804CD89
:1038F0004FEA410C7FEA6C5C4FEA430C18BF7FEA49
:103900006C5C1BD001B050EA410C0CBF52EA430C76
:1039100091EA030F02BF90EA020F0020704710F1F6
:10392000000F91EA030F58BF994208BF90422CBF85
:10393000D8176FEAE37040F0010070474FEA410C7E
:103940007FEA6C5C02D150EA013C07D14FEA430C9C
:103950007FEA6C5CD6D152EA033CD3D05DF8040B0D
:10396000704700BF8446104662468C46194663463F
:1039700000E000BF01B5FFF7B7FF002848BF10F116
:10398000000F01BD4DF808EDFFF7F4FF0CBF01205B
:1039900000205DF808FB00BF4DF808EDFFF7EAFFD7
:1039A00034BF012000205DF808FB00BF4DF808ED92
:1039B000FFF7E0FF94BF012000205DF808FB00BF87
:1039C0004DF808EDFFF7CEFF94BF012000205DF811
:1039D00008FB00BF4DF808EDFFF7C4FF34BF01201E
:1039E00000205DF808FB00BF4FEA410212F500120B
:1039F00015D211D56FF47873B3EB625212D94FEA36
:103A0000C12343F0004343EA505311F0004F23FA1F
:103A100002F018BF404270474FF00000704750EA74
:103A2000013005D111F0004008BF6FF00040704731
:103A30004FF00000704700BF4A0011D212F500128B
:103A400011D20DD56FF47873B3EB62520ED44FEAF6
:103A5000C12343F0004343EA505323FA02F0704776
:103A60004FF00000704750EA013002D14FF0FF30B4
:103A700070474FF0000070474BB942B9002908BFAA
:103A8000002802D04FF0FF31084600F03BB882B06A
:103A9000EC462DE9005000F01DF8DDF804E002B01E
:103AA0000CBC70472DE9704F089E14461D46804699
:103AB000894600F029F804FB01F3A4FB00AB00FBEE
:103AC00005329344B8EB0A0869EB0B09C6E9008993
:103AD000BDE8708F2DE9704F089E14461D46804644
:103AE000894600F061F900FB05F5A0FB04AB04FB7F
:103AF0000154A344B8EB0A0869EB0B09C6E9008935
:103B0000BDE8708F704700BF00292DE9F00FC0F2AB
:103B1000A1800024002BC0F29880154606460F466F
:103B2000002B3FD18A4258D9B2FA82F34BB1C3F18C
:103B3000200201FA03F720FA02F29D4000FA03F690
:103B40001743290CB7FBF1F201FB1277A8B200FB77
:103B500002F34FEA164C4CEA0747BB4209D97F19DA
:103B600002F1FF3C80F00581BB4240F20281023A43
:103B70002F44FF1AB7FBF1F301FB137100FB03F0B5
:103B8000B6B246EA0141884208D9491903F1FF3724
:103B900080F0F180884240F2EE80023B43EA02422C
:103BA000002303E08B420AD900231A461046194627
:103BB00014B1404261EB4101BDE8F00F7047B3FA28
:103BC00083F8B8F1000F40F088808B4202D3824224
:103BD00000F2E28000230122E8E712B90123B3FBDF
:103BE000F2F5B5FA85F2002A3AD17F1B280C1FFAAC
:103BF00085FC0123B7FBF0F100FB11770CFB01F210
:103C00004FEA164848EA0747BA4207D97F1901F137
:103C1000FF3802D2BA4200F2C4804146BF1AB7FB55
:103C2000F0F200FB12700CFB02FCB6B246EA004058
:103C3000844507D9401902F1FF3702D2844500F2CA
:103C4000AE803A4642EA0142B0E7E443524263EBB7
:103C5000430362E7404261EB41014FF0FF3459E713
:103C60009540C2F1200927FA09F126FA09F997408F
:103C7000280CB1FBF0F800FB18111FFA85FC0CFBB7
:103C800008F349EA07094FEA194747EA01418B421D
:103C900006FA02F608D9491908F1FF327AD28B42A6
:103CA00078D9A8F102082944C91AB1FBF0F300FB46
:103CB00013170CFB03F21FFA89F949EA0747BA42C6
:103CC00007D97F1903F1FF3160D2BA425ED9023BB6
:103CD0002F44BF1A43EA08438CE7C8F1200225FAB3
:103CE00002F103FA08FC27FA02F320FA02F207FABB
:103CF00008F741EA0C0C4FEA1C49B3FBF9F109FB48
:103D000011331FFA8CFA0AFB01FB17433A0C42EA03
:103D100003439B4505FA08F008D913EB0C0301F1A6
:103D2000FF3235D29B4533D902396344CBEB0303D1
:103D3000B3FBF9F209FB12330AFB02FABFB247EAFE
:103D40000347BA4508D917EB0C0702F1FF331BD222
:103D5000BA4519D9023A674442EA0145A5FB000178
:103D6000CAEB07078F424FF000030AD305D02A465B
:103D70001CE76246FDE63B4610E706FA08F6864277
:103D8000F5D26A1E002311E71A46E5E70B46A0E7C5
:103D90001146CBE7904687E74346424606E7023A9C
:103DA00050E702392F4439E72DE9F00F1446054654
:103DB0000E46002B43D18A4253D9B2FA82F757B14B
:103DC000C7F1200620FA06F601FA07F302FA07F413
:103DD00000FA07F51E43210CB6FBF1F201FB126657
:103DE000A0B200FB02F32F0C47EA0646B34209D902
:103DF000361902F1FF3780F0FD80B34240F2FA80BD
:103E0000023A2644F61AB6FBF1F301FB136100FBFC
:103E100003F0ADB245EA0141884208D9091903F11E
:103E2000FF3680F0E980884240F2E680023B43EAB8
:103E30000242002310461946BDE8F00F70478B423E
:103E40004CD8B3FA83F6002E4FD18B4202D3824274
:103E500000F2DD80BDE8F00F002301221046194674
:103E6000704712B90124B4FBF2F4B4FA84F2002AC8
:103E700040F08280091B260CA7B20123B1FBF6F0AB
:103E800006FB101107FB00F24FEA154C4CEA01410A
:103E90008A4207D9091900F1FF3C02D28A4200F296
:103EA000C8806046891AB1FBF6F206FB121107FBC7
:103EB00002F7ADB245EA0145AF4208D92C1902F12B
:103EC000FF3180F09B80A74240F29880023A42EA9C
:103ED000004210461946BDE8F00F704700231A460D
:103EE00010461946BDE8F00F7047C6F1200522FACA
:103EF00005F703FA06F421FA05F301FA06FB20FAA6
:103F000005F53C434FEA1448B3FBF8FC08FB1C33AF
:103F10001FFA84F909FB0CFA45EA0B0B4FEA1B4523
:103F200045EA03439A4502FA06F204D91B190CF13B
:103F3000FF356FD3AC46CAEB0303B3FBF8F508FBC0
:103F4000153309FB05F91FFA8BFB4BEA0347B9450B
:103F500004D93F1905F1FF3362D31D4645EA0C4CE5
:103F6000ACFB0223C9EB07079F424FF000054AD381
:103F700046D062462B465DE79440C2F1200921FA03
:103F800009FC914020FA09F9260CBCFBF6F806FB67
:103F900018CCA7B207FB08F349EA01094FEA194117
:103FA00041EA0C4C634500FA02F509D91CEB040CFC
:103FB00008F1FF323BD2634539D9A8F10208A44485
:103FC000C3EB0C0CBCFBF6F306FB13C107FB03F2BF
:103FD0001FFA89F949EA01418A4207D9091903F10F
:103FE000FF3022D28A4220D9023B2144891A43EA77
:103FF000084343E73A4605E7334618E70A4666E7CB
:10400000B0409042B5D20CF1FF32002312E73346A4
:1040100032460FE79A458DD9ACF1020C23448AE76A
:10402000B9459AD9023D274498E70346DEE7904612
:10403000C6E70238214435E7014B1868704700BFD6
:104040008805072070B50F4E0F4D761BB61007D0B0
:10405000043D0024013455F8043F9847A642F9D1A5
:104060000A4E0B4D02F040FE761BB61008D0043D00
:104070000024013455F8043F9847A642F9D170BD99
:1040800070BD00BFF46C0800F46C0800FC6C080004
:10409000F46C08000FB410B5074B82B004AC54F8B0
:1040A000042B186823468168019400F015F902B0CA
:1040B000BDE8104004B0704788050720F0B48407BD
:1040C00043D0541E002A3ED0CDB2034603E0621E08
:1040D000002C38D0144603F8015B9A07F7D1032C63
:1040E0002AD9CDB245EA05250F2C45EA054515D953
:1040F000A4F110073F0903F1100606EB07161A4654
:10410000156055609560D5601032B242F8D104F068
:104110000F040137032C03EB07130DD91E4622466B
:10412000043A032A46F8045BFAD8221F22F003025D
:104130000432134404F003042CB1C9B21C4403F844
:10414000011BA342FBD1F0BC704714460346C6E7EF
:1041500000290CBF022200224FF4806300F000B857
:104160002DE9F0413C4D04462D68884616461F4611
:1041700015B1AB6B002B4FD0022E30D8002F2EDBA9
:104180002846214601F07AF8A38900226260A261E4
:104190001A0628D423F083039BB2022EA3812DD0CC
:1041A000B8F1000F3CD0012E13D09BB203F00800F1
:1041B0002A4A80B2EA63C4F80080C4F810806761BC
:1041C00078B113F0030F18BF0027A7600020BDE8E7
:1041D000F08143F001037A42A381A261E5E74FF049
:1041E000FF30BDE8F0812846216901F0A7F9A389D5
:1041F000022E23F083039BB2A381D1D1002004F1CE
:10420000430243F0020300250121A381A56022603F
:1042100022616161BDE8F081284601F04BF8ABE70F
:10422000002F08BF4FF48067384601F07DFC8046C0
:1042300028B1A38943F080039BB2A381B3E74FF475
:10424000806001F071FC804618B9A3894FF0FF30FF
:10425000D5E74FF48067ECE788050720A9520800EE
:104260004B6E2DE9F0479C040E46804691462AD5B8
:104270009368126802F1080A1BB31AE9A000BF088C
:1042800017D0043D002401E0A74210D0404655F865
:10429000041F324601F0A4F8431C04F10104F3D1D9
:1042A0000023C9F80830C9F80430BDE8F087D9F810
:1042B0000830A3EB8703C9F808300AF1080A002B7D
:1042C000DBD10020ECE701F005FA0023C9F8083043
:1042D000C9F80430BDE8F0872DE9F04FB1B01C46B5
:1042E000029190460893069018B1836B002B00F062
:1042F000E880029DAB899AB2900407D46A6E43F4B9
:10430000005322F40051AB819AB26966110740F163
:10431000B780DDF808B0DBF81030002B00F0B0807B
:1043200002F01A020A2A00F0B78000230DF180097A
:104330000A93159314930993CDF84C904E4698F830
:104340000030002B00F0C884252B00F0C58408F154
:10435000010201E0252B04D0137814460132002B12
:10436000F8D1C8EB040595B1149B159A01332A4482
:10437000072BC6F800807560159214937BDD002A28
:1043800040F0D5840998149228444E460990237829
:10439000002B00F0ED8300214FF000024FF0FF3CB6
:1043A00063788DF8472004918A4604F10108084695
:1043B000654608F10108A3F12002582A00F2D982CB
:1043C000DFE812F0CB02D702D702D202D702D7021F
:1043D000D702D702D702D70282028F02D702840007
:1043E0009302D7022B019601960196019601960140
:1043F0009601960196019601D702D702D702D702FD
:10440000D702D702D702D702D702D7023001D7028C
:10441000D702D702D702D702D702D702D702D702D4
:10442000D7027B01D702D702D702D702D702A40155
:10443000D702D702BF01D702D702D702D702D702CD
:10444000D702D702D702D702D702E401FA01D70276
:10445000D702D7021602FA01D702D7021B02D702EF
:104460002802890066027D02D7023A02D7021901AA
:10447000D702D702AF02083609982844099086E788
:104480000698029900F0E4FDB0B9029DAA8902F0F5
:104490001A020A2A7FF449AFDDF808B0BBF90E30E2
:1044A000002BFFF642AF069859464246234600F0DD
:1044B0003DFD31B0BDE8F08F4FF0FF3031B0BDE8C9
:1044C000F08F00F0F7FE14E7404208934AF0040A28
:1044D00098F800306DE71AF020030490AC4600F025
:1044E000F480DDF820B00BF1070323F0070303F19C
:1044F00008040894D3E9004500234FF00000002190
:104500008DF84700CDF814C00791BCF1000FA8BF8B
:104510002AF0800A54EA050240F0AD80BCF1000F99
:1045200040F0A980002B40F0C0831AF0010F00F08A
:10453000BC83302330AF07F8413DC7EB0904059435
:10454000DDF814B0079CE345B8BFE346CDF80CB0E6
:104550001CB10BF1010BCDF80CB01AF00205079558
:1045600005D0DDF80CB00BF1020BCDF80CB01AF051
:1045700084030B9340F01B82049DDDF80CB0CBEB61
:104580000504002C40F31382102C40F38984BE4DA7
:10459000159A2B46149825464FF0100B6446B446E6
:1045A0001E4606E0831C0CF1080C0846103D102D39
:1045B00011DD411C1032072915928CE84008149136
:1045C000F0DD002A40F0E681103D102D4FF0010390
:1045D0001046CC46EDDC31466646A4462C460D46D8
:1045E0002244072B159235607460149300F36D8399
:1045F0000836591CDEE11AF0200F0490AC4600F09A
:104600008D80089DEB1D23F0070303F1080BD3E910
:104610000045CDF820B001236FE74AF0800A98F8F2
:104620000030C6E64AF0100A1AF0200F0490AC469B
:104630008DF8471000F0C880089CE11D21F00701AB
:10464000D1E900230831089114461D46002A73F170
:10465000000BC0F2CE83BCF1000F9DF84700A8BF4D
:104660002AF0800A54EA05020790CDF814C04FF0F2
:1046700001033FF453AF012B00F01983022B0DF11E
:104680007F0340F04C82DDF828B0194604F00F009B
:1046900022091BF8000042EA05722B09087052EA51
:1046A00003000F4614461D4601F1FF31EED1CDE95E
:1046B0000E23C7EB0903059342E74AF0100A1AF0EC
:1046C00020030490AC467FF40CAF1AF0100240F0C7
:1046D00011831AF0400300F00D83DDF820B013467B
:1046E000BBF800400BF1040B0025CDF820B004E727
:1046F000A3F13002002018F8013B00EB800002EB30
:104700004000A3F13002092AF5D954E64AF0100A14
:104710001AF0200F0490AC467FF473AF1AF0100F1C
:1047200040F0EF821AF0400F00F0EB82DDF820B08D
:104730000025BBF800400BF1040B0123CDF820B09D
:10474000DBE6AC46514D1AF0200F04908DF847106F
:104750000A9500F0F080089DEA1D22F0070202F1A0
:10476000080BCDF820B0D2E900451AF0010F00F097
:10477000AA8254EA050B00F0A68230228DF8493057
:104780004AF0020A8DF848200223B6E6089BDDF8BD
:1047900020B01B6801244FF000050BF1040B0490BE
:1047A00003948DF847508DF85830CDF820B005941B
:1047B00016AF4FF0000CD0E61AF0200F0490AC4674
:1047C0008DF847107FF438AF1AF0100F40F0A78231
:1047D0001AF0400F00F0A382DDF820B0BBF90040D2
:1047E0000BF1040BE51722462B46CDF820B02DE740
:1047F0004AF0400A98F80030DBE598F8003042466D
:104800006C2B03BF08F101084AF0200A53784AF0E4
:10481000100ACEE51AF0200F8DF8471000F0F7824D
:10482000089C2168099CE5172B46089D2246043503
:104830000895C1E9002382E5089CAC4627684FF043
:10484000000504908DF847500434002F00F03283A7
:10485000BCF1000F3846C0F2078362460021CDF854
:1048600004C001F005FCDDF804C0002800F03A8324
:10487000C01B9DF847506045A8BF6046059008944E
:1048800007954FF0000C5BE6D86C0800986C0800A8
:10489000089BDDF820B00490B2481C6830227823D1
:1048A0000BF1040BAC468DF849304AF0020ACDF802
:1048B00020B000258DF848200A9002231DE64AF01A
:1048C000200A98F8003074E5DDF820B0DBF800002D
:1048D0000BF104030028FFF6F7AD089398F80030B9
:1048E00067E598F800302B2163E598F8003008F16F
:1048F00001042A2B00F00583A3F13002092A98BF96
:10490000002500F2FA8214F8013B05EB850502EB65
:104910004505A3F13002092AF5D945EAE575A04617
:1049200049E5904C1AF0200F0490AC460A948DF89B
:1049300047107FF410AF1AF0100F40F0EA811AF020
:10494000400F00F0E681DDF820B00025BBF8004004
:104950000BF1040BCDF820B007E798F800300029E0
:104960007FF427AD202124E54AF0010A98F80030B1
:104970001FE504908DF84710002B00F0F980012509
:104980004FF0000B03958DF858308DF847B0059522
:1049900016AF0EE70698029913AAFFF761FC0028EC
:1049A00040F0ED801498159A431CCC46FEE5149B0C
:1049B000159A591C9DF8470068B101320DF1470066
:1049C000012307291592149186E8090000F36081FC
:1049D0000B4608360131079C64B1023212A802234B
:1049E00007291592149186E8090000F357810B46B8
:1049F000083601310B9D802D00F00181059DC5EB2E
:104A00000C04002C2FDD102C574D22DD30464FF0CA
:104A1000100B2E462546069C06E003F1020C0830DA
:104A20000B46103D102D10DD591C10320729159230
:104A300080E840081491F0DD002A63D1103D102D6C
:104A40004FF0010C13464846EEDC2C4661463546D5
:104A5000064622440729159235607460149100F3CC
:104A6000C18008360131059D07292A441592376017
:104A70007560149140F3C180002A40F03081149297
:104A80004E461AF0040F00F08B80049DDDF80CB048
:104A9000CBEB0504002C40F38380102C40F31E82E6
:104AA0001499324D1027DDF818A0DDF808B005E0A4
:104AB000881C08361946103C102C10DD4B1C103297
:104AC000072B159286E8A0001493F1DD002A7DD112
:104AD000103C102C4FF0010011464E46EEDC2244F3
:104AE0000728159235607460149059DD002A4FD163
:104AF000099CDDF80CB0049DAB45ACBF5C44641967
:104B000009945EE02046029913AAFFF7A9FB00284A
:104B100035D1149B159A03F1010C484681E7E00852
:104B200040EA457004F00702E908303250EA010B10
:104B30001F461A7004460D4603F1FF33EFD11AF0F9
:104B4000010FCDE90C01394600F0B980302A3FF45D
:104B5000F4AC1F46C7EB09053023059501F8013C6D
:104B6000EEE400BFAC6C0800C86C0800D86C08000C
:104B7000159B23B10698029913AAFFF771FB029CBB
:104B8000A3895B063FF598AC099831B0BDE8F08F7A
:104B90000698029913AAFFF763FB0028EFD1159A34
:104BA000099CDDF80CB0049DAB45ACBF5C446419B6
:104BB000099432B10698029913AAFFF751FB002815
:104BC000DDD1002014904E46FFF7B9BB5046594640
:104BD00013AAFFF745FB0028D1D11499159A481C58
:104BE0004E4668E7002A40F0F780059C0123209795
:104BF00021941594224614934E46083641E7049DAD
:104C0000DDF80CB0CBEB0504002C7FF7F7AE102CD1
:104C1000A64D40F3708129464FF0100B254664469F
:104C2000B4460E4606E0981C0CF1080C0B46103DED
:104C3000102D0FDD591C1032072915928CE8400801
:104C40001491F0DDBAB9103D102D4FF0010013465C
:104C5000CC46EFDC33466646A4462C461D4622442D
:104C60000728159235607460149000F3AF80083601
:104C7000411C0346C2E60698029913AAFFF7F0FA10
:104C800000287FF47CAF149B159A581CCC46CEE7C5
:104C9000002A79D119464E4613469CE6002A40F078
:104CA0008480012113464E46A4E64F4648E4002D79
:104CB00008BF0A2C46D2303430AF07F8414DC7EB5D
:104CC000090305933CE4022317E4002A40F0AF8077
:104CD000134601214E466DE64446FFF758BB069841
:104CE000029913AAFFF7BCFA00287FF448AF159A7F
:104CF0004E46C6E6089D2C68043508950025FFF74A
:104D0000FCBB089D01232C68043508950025FFF79E
:104D1000F4BB089D2C6804350895002525E5089D01
:104D20002C6804350895E51722462B468EE4069834
:104D3000029913AAFFF794FA00287FF420AF4E4699
:104D4000FFF79ABB0DF17F0B03965E46E3462046C4
:104D500029460A220023FEF78FFE303232702046A9
:104D600029460A220023FEF787FE04460D4654EA30
:104D70000500374606F1FF36E9D1C7EB0903DC46EB
:104D8000039E0593FFF7DCBB0698029913AACDF8A2
:104D900004C0FFF765FADDF804C000287FF4EFAE29
:104DA000149B159A591C4E4615E60698029913AAAB
:104DB000CDF804C0FFF754FADDF804C000287FF4F2
:104DC000DEAE149B159A591C4E4613E6002A56D1A6
:104DD000012113464E4611E60698029913AAFFF7E1
:104DE0003FFA00287FF4CBAE1499159A01314E4654
:104DF00039E64FF02D0B644265EB45058DF847B061
:104E0000CDF81CB0CDF814C00123FFF77EBB1AF01B
:104E1000100F1DD11AF0400F58D0089DDDF824B0B6
:104E20002B6804350895A3F800B0FFF788BA0698F8
:104E3000029913AACDF804C0FFF712FADDF804C0F6
:104E400000287FF49CAE149B159A591C4E46B1E580
:104E5000DDF820B0099CDBF800300BF1040BCDF835
:104E600020B01C60FFF76BBA089401F05FFC9DF85E
:104E70004740059007944FF0000CFFF761BB069880
:104E8000029913AACDF804C0FFF7EAF9DDF804C0CF
:104E900000287FF474AE149B159A591C4E46ADE55C
:104EA000149B159A0133024DFFF79ABBC86C08009A
:104EB000D86C0800BCF1060F34BF63460623089483
:104EC00023EAE37405930394164F72E4089C099D4A
:104ED0002368043408941D60FFF731BA1498124D0A
:104EE0000130FCE59DF84750CDF814C007950894B3
:104EF0008446FFF725BB0846B1E6A0460025FFF72C
:104F00005ABADDF820B098F80130DBF800500BF108
:104F10000402002D0892A046BFF64BAA4FF0FF35C1
:104F2000FFF747BAC06C0800D86C08002DE9F047BD
:104F30004F6EADF58D6D88461997D8F81C70B1F895
:104F40000CA0B1F80E900797D8F824701AAC4FF463
:104F500080652AF0020A00266946009404940295AE
:104F60000595ADF80CA0ADF80E900997069605468C
:104F7000FFF7B2F9041E07DB2846694600F07EF908
:104F8000B04218BF4FF0FF34BDF80C305B0605D5BA
:104F9000B8F80C3043F04003A8F80C3020460DF56B
:104FA0008D6DBDE8F08700BFF8B50D461446074685
:104FB00010B1836B002B48D0A289A06993B2A06086
:104FC000180738D52669002E35D09904EDB215D5CD
:104FD000236862699E1B96421CDA0136A268591C3E
:104FE000013AA26021601D706369B3421AD0A3899F
:104FF000DB0701D50A2D15D02846F8BD636E42F4B3
:10500000005223F4005363662368A28162699E1BE9
:105010009642E2DB3846214600F030F940B9236879
:105020000126DBE73846214600F028F90028E3D0C6
:105030004FF0FF30F8BD3846214600F009F800284F
:10504000F6D1A289266993B2BFE700F033F9B3E73E
:105050002F4B70B5064618680C4610B1826B002ABB
:1050600036D0A589ABB219070CD52269AAB113F0C5
:1050700001011ED0636900215B42A361A160F2B10E
:10508000002070BDDA063AD55B0724D4226945F0CA
:105090000803A3819BB2002AE9D103F42071B1F582
:1050A000007FE4D03046214600F0CEFCA38922697F
:1050B000DDE7980758BF6169A160002AE0D1A389A4
:1050C0001A06DDD543F04003A3814FF0FF3070BDD9
:1050D00000F0F0F8C5E7216B49B104F140039942B3
:1050E00003D0304600F02AFAA58900232363226901
:1050F00025F024050021ADB222606160C7E745F0CC
:105100004005092333604FF0FF30A58170BD00BF1B
:1051100088050720024B13B1024800F005B870471C
:1051200000000000B153080001460020024603467B
:1051300001F076BB8B892DE9F0419AB20D4611073B
:1051400080463CD46A6843F40063002AAB8159DD91
:10515000AC6A002C4BD09BB203F48052002192B277
:10516000D8F80060C8F80010002A4FD02A6D5F07F9
:1051700005D569682B6B521A0BB1EB6BD21A4046FE
:10518000E9690023A047441C4AD0AB892A6923F46B
:1051900000639BB200212A60DA04AB8169604CD4C1
:1051A000296BC8F8006011B305F14003994202D0A1
:1051B000404600F0C3F900202863BDE8F0812E6965
:1051C000AEB191072C680CBF6B6900232E60A41B45
:1051D000AB600AE0324623466F6A4046E969B84749
:1051E0000028C0EB0404064404DD002CF2DC00209F
:1051F000BDE8F081AB894FF0FF3043F04003AB8155
:10520000BDE8F081EA6B002AA2DCF0E7012340460A
:10521000E969A047431C02461ED0AB89AC6AA6E7E9
:10522000D8F800305BB9AA89296922F4006292B2E9
:105230006B60D304AA812960B2D52865B0E71D2B25
:1052400001D0162B13D1A9892B6921F4006100220A
:10525000A9812B606A60A3E7D8F80030002BDCD06E
:105260001D2B01D0162BC5D1C8F80060BFE7AB8954
:1052700043F04003AB81BDE8F08100BF10B50446A8
:1052800082B008B1836B53B1B1F90C0008B902B018
:1052900010BD204602B0BDE81040FFF74BBF0191A2
:1052A00000F008F80199EFE7014900F09FBB00BF4B
:1052B0006D6908002DE9F04F846B83B00746002C20
:1052C00065D17D6833480423032107F53B72F863F9
:1052D000C7F8E412C7F8E822C7F8E04205F15C001D
:1052E000AB812C606C60AC606C66EC812C616C6195
:1052F000AC6121460822FEF7E1FEDFF89CB0BE68F3
:10530000DFF898A0DFF89890DFF898800123092251
:10531000ED61C5F820B0C5F824A0C5F82890C5F8FF
:105320002C802146F381B28134607460B46074666D
:1053300034617461B461082206F15C000193FEF7E8
:10534000BDFEFD6812200222F661C6F820B0C6F844
:1053500024A0C6F82890C6F82C802146A881EA81AE
:105360002C606C60AC606C662C616C61AC6105F1AA
:105370005C000822FEF7A2FE019BED61C5F820B09B
:10538000C5F824A0C5F82890C5F82C80BB6303B0ED
:10539000BDE8F08FA9520800A9660800CD66080094
:1053A0000567080025670800704700BF704700BF09
:1053B00038B5094D094C641BA41018BF05EB8405D2
:1053C00005D0013C55F8043D9847002CF9D1BDE8C3
:1053D000384001F093BC00BF086D08000C6D080058
:1053E0002DE9F04193890F46990482B01446804616
:1053F00006D4526E43F4005342F40052A381626615
:1054000000F01CFB01283ED03A46404601A904F1B9
:105410005C0301F0BBF9421C06462DD000283AD0AF
:105420009DF80410002509E02368197023680133F2
:1054300023600135B5422ED201ABE95CA368013B84
:10544000002BA360F0DAA269934206DB236819708F
:105450002368197801330A29EAD140462246FFF72A
:10546000A3FDB0F1FF33584258410028E1D04FF07E
:10547000FF3002B0BDE8F081A38943F04003A3816F
:1054800002B0BDE8F0817B1EFE2BBDD8F9B2064606
:105490008DF80410C6E7384602B0BDE8F08100BFC1
:1054A000F8B5234D0F46044600F008FFAB685E6870
:1054B00026F00306F11B01F6EF7121F47F6121F064
:1054C0000F01A1F58057B7F5805F07DB204600216B
:1054D00001F0D8F8AB683344984204D0204600F07D
:1054E000EFFE0020F8BD2046794201F0CBF80130F4
:1054F0000DD0104BAA681968F61B46F0010620462D
:10550000C91B5660196000F0DBFE0120F8BD204683
:10551000002101F0B7F8AB68C21A0F2ADEDD064D94
:1055200004492D6842F00102401B5A600860D5E72B
:10553000B0050720880A0720BC0907202DE9F041A3
:105540000D460646002955D000F0B8FE55F8041C5B
:10555000DFF870C1A5F1080421F00103E218DCF8BE
:1055600008005768904227F0030768D011F0010146
:10557000576032D00021D0194068C00706D43B44A0
:10558000906800294DD0D268C260906043F001025B
:105590006260E350E1B9B3F5007F2DD35A0A042AC3
:1055A00069D89809383041000CEB810CDCF80820F0
:1055B0004449624565D0516821F003018B4202D213
:1055C00092689445F7D1D368E360A2609C60D46090
:1055D0003046BDE8F04100F073BE55F8085C0CF1B0
:1055E0000808641BA0682B44404542D0E568C560AC
:1055F000A860C0E7BDE8F081DB089A100120904068
:10560000DCF804100CEBC3039A680143A260E3606A
:10561000CCF8041030469C60D460BDE8F04100F046
:105620004FBE294DA842AED143F00102CCF8144040
:10563000CCF81040E060A0606260E350C8E71F440F
:10564000CB0707D455F8081C641AE368A2680F4416
:10565000D3609A601D4B47F001021B6862609F4255
:10566000CCF80840B4D31A4B30461968FFF718FF3E
:10567000AEE701217FE7142A0BD802F15B0041005D
:1056800092E780100125854048681346284348600A
:105690009AE7542A03D8180B6E30410084E7B2F51C
:1056A000AA7F03D8D80B773041007DE740F25451F0
:1056B0008A4203D8980C7C30410075E7FC217E209B
:1056C00072E700BFB0050720B8050720B80907201A
:1056D000840A07202DE9F04F936883B0164681466F
:1056E0000C462BB38B89190726D5226922B303F008
:1056F000020292B23568002A2CD04FF0000ADFF87F
:10570000E8B2D046D84534BF43465B465246484689
:10571000B8F1000F4FD0E169676AB847002856DD3D
:10572000B36882441B1AC0EB0808B360002BE9D1B0
:10573000002003B0BDE8F08F48462146FFF788FC03
:10574000002840F04881A389356803F0020292B234
:10575000002AD2D113F0010A42D1D046B8F1000F8D
:1057600023D09A05A76876D5B845C0F0A48013F475
:10577000906F40F0B2802068BB4651465A4600F018
:1057800037FDA2682168D21B01EB0B03A2602360E6
:105790004246B36892449B1AC2EB0808B360002BE0
:1057A000C6D0A389B8F1000FDBD1D5F800A0D5F899
:1057B00004800835D2E7D5F800A0D5F80480083574
:1057C000A0E748462146FFF759FD002859D0A38994
:1057D00043F040034FF0FF30A38103B0BDE8F08FEA
:1057E0009246019293469046B8F1000F2BD0019F4C
:1057F000002F64D020682169C24534BF5346434618
:1058000088421F46D4F808C0626903D994446345AE
:1058100000F3AE80934236DB1346676A4846E1697F
:105820005A46B847071ED2DDBAEB070A3AD0B3682A
:10583000BB44DB1BC7EB0808B360002B3FF478AF19
:10584000B8F1000FD3D10027D5F800B0D5F8048007
:1058500001970835C8E720682369984202D8636930
:10586000984572D2B84538BF47463A46514600F08F
:10587000BFFCA3682268DB1B3A44A3602260002BB4
:105880009FD03A4685E71A465946009300F0B0FC8F
:10589000009BA1682268C91ABAEB070A1344A160E9
:1058A0002360C4D148462146FFF7E8FC00288ED18A
:1058B000CDF804A0BBE720684746C3465DE75846DD
:1058C0000A21424600F0D4FB00287FD000F1010AF3
:1058D0000127CBEB0A0A01978CE7226821696769E7
:1058E000C1EB020C07EB47070CF1010207EBD7777E
:1058F00042447F10974234BF17463A465B054FD566
:1059000011464846CDF800C000F016F9DDF800C099
:105910008346002862D062462169CDF800C000F0BD
:10592000F1FBA289DDF800C022F4906242F080020F
:10593000A2810BEB0C00CCEB0702C4F810B067613E
:105940002060A2604746C34617E76FF000429045CB
:1059500038BF424692FBF3F202FB03F3676A484604
:10596000E1695246B84700287FF731AF024610E799
:1059700062465946CDF800C000F03AFCDDF800C0A0
:1059800023684846634423602146CDF800C0FFF7F2
:1059900075FCDDF800C000287FF419AF674643E7C7
:1059A0004846CDF800C000F08DFCDDF800C083460D
:1059B0000028BED148462169FFF7C0FDA3890C220B
:1059C00023F080039BB2C9F8002001E7012708F10A
:1059D000010A01970EE74FF0FF30AAE60C23C9F841
:1059E0000030A389F4E600BF00FCFF7F2DE9F04101
:1059F00010F53877884619D000267D68BC68013DCF
:105A00000ED4A389013D012B06D9B4F90E302046EE
:105A1000013301D0C04706436B1C04F16804F0D188
:105A20003F68002FE9D13046BDE8F0813E46304660
:105A3000BDE8F081004870478C050720014B1868CD
:105A4000704700BFAC050720F0B58B8991B09AB2C2
:105A500096070C46054637D4B1F90E10002917DB1E
:105A600001AA00F08BFF002810DB029B03F47043B7
:105A7000B3F500514F424F41B3F5004F2CD0A389ED
:105A80004FF4806643F40063A3810BE0A3899AB2CC
:105A900012F0800F43F40063A38114BF40264FF43B
:105AA000806600272846314600F046F8A389002882
:105AB00029D01B4A43F08003EA63A3812060206160
:105AC0006661A7B911B0F0BD01F1430301220B607B
:105AD0000B614A6111B0F0BD124AA36A9342CED164
