:0200000280007C
:10000000202607200D080800090808000908080034
:100010000908080009080800090808000000000095
:1000200000000000000000000000000009080800B7
:100030000908080000000000090808000908080075
:10004000090808000908080009080800090808004C
:10005000090808000908080009080800090808003C
:1000600009080800090808000000000055060800FB
:10007000690608007D0608009106080000000000DF
:100080000000000009080800D90908000908080054
:1000900009080800090808000908080009080800FC
:1000A0000908080000000000090808000908080005
:1000B00009080800090808000908080009080800DC
:1000C00009080800090808000908080009080800CC
:1000D00009080800090808000908080009080800BC
:1000E00009080800090808000908080009080800AC
:1000F0000908080010B5054C237833B9044B13B137
:100100000448AFF300800123237010BD6805072069
:1001100000000000700D080008B5064B1BB1064832
:100120000649AFF300800648036813B1054B03B1DD
:10013000984708BD00000000700D08006C050720FE
:10014000700D08000000000010B40B0193420DD99F
:100150001AE0416841F40021416042EA034303622E
:10016000002020E001201EE001201CE0D20002EB74
:100170005302B2FBF3F3DA0803F00703541E4FF601
:10018000FE718C42E9D9EDE7C900D30003EB5103BE
:10019000B3FBF1F3DA0803F00703541E4FF6FE71C8
:1001A0008C42D6D9E0E75DF8044B7047084BC0F8A5
:1001B000E430002343604362836288230360242386
:1001C00003604FF4807303604FF4002303607047B3
:1001D0000041535570B505460C4616460F4B9847DF
:1001E00000210F4B19609CB12846216832460D4B07
:1001F0009847034670B9A16862680A4321690A43B7
:10020000E068024306490A6069680A436A6002E0DE
:10021000012300E00123184670BD00BFAD010800B6
:10022000840507204901080040230360704700BF90
:1002300010230360704700BF81607047044BDB6B85
:1002400013F0805F03D0034B1A6801321A607047C5
:1002500000120E408C050720044BDB6B13F4000FDB
:1002600003D0034B1A6801321A60704700120E4027
:100270009005072070B582B006460D461446002052
:100280000D4B984730460D4B984728462146012292
:100290000B4B98470B4B0093284631462246402390
:1002A000094EB04728462146084B98474FF4005264
:1002B000074B1A6002B070BDE50708008D07080003
:1002C000510408003D02080019060800DD0408007A
:1002D00000E100E070B582B006460D4614460020ED
:1002E0000D4B984730460D4B984728462146012232
:1002F0000B4B98470B4B0093284631462246402330
:10030000094EB04728462146084B98474FF4005203
:10031000074B1A6002B070BDE50708008D070800A2
:10032000510408005902080019060800DD040800FD
:1003300000E100E010B50E480E4B984700203E212A
:100340000D4B98470D4CA0470028FCD00C4B98470C
:100350000C4A0D4B9A620D4CA0470028FCD010208F
:100360000B4B98470B4B98470148024B984710BDE1
:1003700000BD0105B1000720090708005D0708005E
:100380006D070800013F0D2000060E407D070800A4
:10039000A5060800BD08080010B54FF40042164B32
:1003A0005A600B20154CA0470C20A0470D20A047F9
:1003B0000E20A0473B204FF06051114CA047552024
:1003C0004FF06051A04756204FF06051A047682081
:1003D0000C49A0475C200C49A0470C4B4FF44052FD
:1003E0001A665A655A62C3F88020196F21F4405189
:1003F00019675A6010BD00BF501A0E408D070800E3
:10040000ED0408007900002801000028000E0E40CD
:100410004264B1F1805F16D004D8C1B1B1F1006F70
:100420000AD013E0B1F1405F11D0B1F1605F0ED09E
:10043000B1F1205F0AD17047036F016F0B4023EACF
:100440000203036702E0036F1343036742607047D0
:10045000416412F0010F14BF4166016612F00A0FE9
:1004600014BF0162416212F0020F02D0C0F8801086
:1004700004E012F0080F18BFC0F884104161016059
:10048000704700BF10B44164019C0CB1416600E0AC
:1004900001660BB1016500E041650AB1016300E04E
:1004A0004163016101605DF8044B704712F0100F69
:1004B00010D0C0F8B01012F0200F14BFC0F8D41044
:1004C000C0F8D01012F0400F14BFC0F8C010C0F830
:1004D000C4107047C0F8B410704700BFC36C01640B
:1004E000704700BFC06C7047806C704770B582B0B9
:1004F0000D46440904F5001404F20774660201F085
:10050000F044B4F1205F30D006D8B4F1006F0AD0C7
:10051000B4F1805F18D049E0B4F1405F30D0B4F15D
:10052000605F2DD042E000F01F000124844030467F
:100530004FF0006122461F4B984715F0010F14BF82
:1005400074663466012032E000F01F00012484400C
:1005500030464FF080512246164B984715F0010F58
:1005600014BF74663466012021E000F01F010124ED
:10057000304604FA01F12A460F4B9847204616E010
:1005800000F01F01012405F0605205EA0403009306
:10059000304604FA01F1B2F1605F14BF002201227B
:1005A000C5F38003054DA847204600E0002002B0B7
:1005B00070BD00BF11040800510408008504080044
:1005C0002DE9F04104460E46104B9847054620465B
:1005D0000F4B9847054017D00E4F07F10C046C37AE
:1005E00054F80C3CB3420AD154F8081C294206D0F6
:1005F00023683046984754F8083C25EA0305BC4276
:1006000002D01034002DEBD1BDE8F081E5040800E4
:10061000E904080098050720F8B50B4C2468062C5F
:1006200010D80A4F2601BD19B9516A60AB6006990E
:10063000E960013404490C6011461A46044B98479E
:100640000020F8BD0120F8BD94050720980507207B
:10065000AD04080008B502480B21024B984708BDBD
:10066000000E0E40C105080008B502480C21024BDF
:10067000984708BD00100E40C105080008B50248A3
:100680000D21024B984708BD00120E40C10508001D
:1006900008B502480E21024B984708BD00140E40D1
:1006A000C1050800174B1A6B22F070021043186343
:1006B0009B6E13F0080F09D14FF40063114901E05C
:1006C000013B19D08A6E12F0080FF9D00D4B1A6B4E
:1006D00022F0030242F002021A63986E10F0080042
:1006E0000CD14FF40063074901E0013B08D08A6E4A
:1006F00012F0080FF9D070470120704700207047B2
:100700000120704700060E4038B111490B6A114AAA
:100710001A40114B13430B6270470D4A136A23F4BE
:100720005C1323F0030343F45C1343F00103090259
:1007300089B20B431362936E13F0010FFBD0044A8E
:10074000136A43F09B7343F480331362704700BF16
:1007500000060E40FCFFC8FE02003701024B986EF7
:1007600000F48030704700BF00060E404FF000528A
:10077000014B9A62704700BF00060E40024B986E14
:1007800000F00200704700BF00060E402C2820D861
:100790001F280DD8124B9A69012383401A409342B7
:1007A00019D0012303FA00F00D4B186100207047A7
:1007B0000B4BD3F808212038012383401A40934281
:1007C0000BD0012303FA00F0054BC3F80001002011
:1007D000704701207047002070470020704700BF1D
:1007E00000060E4020B1054A054BC3F8E4207047CF
:1007F000044A034BC3F8E420704700BF01434D5047
:1008000000060E4000434D50FEE700BF10B51E4BE2
:100810001E4A9A4203D01E4B1B4A9A4204D31D4BD8
:100820001D4A9A420FD31AE01C4B1D4CE41A24F0C7
:10083000030404340023144814495A581A5004334A
:10084000A342FAD1EBE7174B1749C91A21F003016C
:100850001A1D1144002243F8042F8B42FBD1134A86
:1008600022F0604323F07F0311498B6002F1604264
:10087000B2F5801F03D28A6842F000528A600D4BA5
:1008800098470D4B9847FEE700000720700D0800C1
:10089000680507201C0607206805072004000720BC
:1008A0006B050720640507201706072000000800D5
:1008B00000ED00E0FD0B0800CD0A08003E4B1B6B6D
:1008C00003F00303032B5FD8DFE803F0020E2B2BAA
:1008D0003A4B5B6913F0800F14BF4FF400424FF4A2
:1008E000FA42374B1A604FE0334B1B6A13F0807F9C
:1008F00003D0344A324B1A6046E0334A304B1A6018
:100900002D4B1B6A03F07003102B02D0202B04D058
:100910003AE02E4A2A4B1A6036E02A4A284B1A60DF
:1009200032E0254B1B6A13F0807F03D0254A244B0D
:100930001A6012E0244A224B1A601F4B1B6A03F014
:100940007003102B02D0202B04D006E01F4A1C4B52
:100950001A6002E01B4A1A4B1A60174B1B6B03F01C
:100960000303022B0DD1144B986A996A144BC0F300
:100970000A401A6800FB0222C9B2B2FBF1F21A6007
:1009800002E0134A0E4B1A600B4B1B6B03F0700313
:10099000702B07D10A4B1A680E49A1FB02025208BC
:1009A0001A607047044B196B054BC1F302111A68AA
:1009B000CA401A60704700BF00060E40101A0E4071
:1009C00038010720001BB70000093D0000127A0023
:1009D000001C4E0EABAAAAAA094B1A6842F01002DC
:1009E0001A60084801784A1CD2B202709869064B16
:1009F00058540F2A02D90022024B1A70704700BFC8
:100A000000C00940080607200C0607200B78303B81
:100A1000C3EB431203EB8203DB009BB203804A78F3
:100A2000303A02EB820202EB820203EB820292B2C4
:100A300002808B78303B03EB830302EB43039BB2D2
:100A40000380CA78303A13440380704700B583B0FE
:100A50000C4B1A788DF804205A788DF805209A7876
:100A60008DF80620DB788DF8073002A8002320F8E7
:100A7000063D01A9044B9847BDF8020003B05DF89C
:100A800004FB00BF0C0607200D0A080000B583B068
:100A90000C4B1A798DF804205A798DF805209A7933
:100AA0008DF80620DB798DF8073002A8002320F8A6
:100AB000063D01A9044B9847BDF8020003B05DF85C
:100AC00004FB00BF0C0607200D0A08002DE9F041C9
:100AD00086B0354B9847354B9847354C2046354DB9
:100AE000A8474FF416530093C02301934FF40063BB
:100AF00002930023039304931220A84720466946DB
:100B00002D4A2E4B984720462D4B984720462D4B7B
:100B100098474FF480222C4B1A60204601212B4B22
:100B200098472B4B4FF400421A61C3F8A02003F5FD
:100B3000C06302221A61C3F8A02004F58A2404F5D8
:100B400000744FF080632361C4F8A0304FF000734D
:100B50006361C4F8A0300D2021464FF080521D4B38
:100B600098470D2021464FF400021B4B98471B4825
:100B70001B4B98471B4EDFF880801B4F33881BB1FF
:100B80000223C8F8303002E00223C8F83430B847F6
:100B90003080164B9847164B1880164D2846104C3F
:100BA000A0472846A047E9E7350308009903080055
:100BB00000C009408D07080000BD0105D5010800EF
:100BC000290208003102080000E100E039020800B3
:100BD000000E0E4075020800D5020800001BB70089
:100BE000010007208A0507204D0A08008D0A080029
:100BF0008805072060E3160000140E4070B50F4E04
:100C00000F4D761BB61007D0043D0024013455F873
:100C1000043F9847A642F9D10A4E0B4D00F096F8D2
:100C2000761BB61008D0043D0024013455F8043F6B
:100C30009847A642F9D170BD70BD00BF580D08009D
:100C4000580D0800600D0800580D0800024B13B144
:100C5000024800F005B87047000000006D0C080065
:100C6000014600200246034600F018B838B5094D89
:100C7000094C641BA41018BF05EB840505D0013C8A
:100C800055F8043D9847002CF9D1BDE8384000F0F4
:100C900067B800BF6C0D0800700D0800F0B5274C58
:100CA00085B026680746D6F84841002C40D06568D4
:100CB0001F2D1EDD224818B94FF0FF3005B0F0BDE2
:100CC0004FF4C870039102920193AFF3008003992F
:100CD0000446029A019B0028EED0D6F84851002025
:100CE000256060600546C6F84841C4F88801C4F82C
:100CF0008C013FB96B1C00200235636044F825105D
:100D000005B0F0BD0126AE4004EB8500C0F8882098
:100D1000D4F88821022F42EA0602C4F88821C0F8DC
:100D20000831E7D1D4F88C311E43C4F88C61E1E777
:100D300006F5A674C6F84841B9E700BF480D08009B
:100D4000000000004300000040010720F8B500BF8C
:100D5000F8BC08BC9E4670474D0C080019010800FD
:100D6000F8B500BFF8BC08BC9E467047F500080007
:100D7000BFF35F8F0138FBD1704700BF4FF4806332
:100D8000204A136002F5007213601F4B1B6A13F0B8
:100D9000807F07D11D4A1C4B1A621A46936E13F0CE
:100DA000010FFBD01A4A184B1A621A46936E13F4BD
:100DB000803FFBD0144B1A6B22F0030242F0010279
:100DC0001A631A46936E13F0080FFBD0114A0E4BAC
:100DD0009A621A46936E13F0020FFBD011220A4B4F
:100DE0001A631A46936E13F0080FFBD01222064BBB
:100DF0001A631A46936E13F0080FFBD0064A074B8E
:100E00001A607047000A0E4000060E4009083700BD
:100E100009083701013F0D2000BD010538010720F9
:100E20001B4B984206D800231A4A136002F5007241
:100E300013607047184B984207D84FF48073154AD7
:100E4000136002F5007213607047144B984207D884
:100E50004FF400730F4A136002F50072136070477D
:100E60000F4B984207D84FF440730A4A136002F5BB
:100E70000072136070470B4B984294BF4FF480632D
:100E80004FF4A063034A136002F5007213607047C9
:100E9000BFEA2101000A0E407FF0FA02FF8FD00363
:100EA000FFB3C4047F4A5D0500093D000000000057
:100EB000000000002C04072094040720FC040720F5
:100EC0000000000000000000000000000000000022
:100ED0000000000000000000000000000000000012
:100EE00000000000440D08000000000000000000A9
:100EF00000000000000000000000000000000000F2
:100F000000000000000000000000000000000000E1
:100F100000000000000000000000000000000000D1
:100F200000000000000000000000000000000000C1
:100F300000000000000000000000000000000000B1
:100F400000000000000000000000000000000000A1
:100F50000000000000000000010000000000000090
:100F60000E33CDAB34126DE6ECDE05000B00000055
:100F70000000000000000000000000000000000071
:100F80000000000000000000000000000000000061
:100F90000000000000000000000000000000000051
:100FA0000000000000000000000000000000000041
:040000038000080D64
:00000001FF
