:0200000280007C
:10000000A0260720310B08002D0B08002D0B08003F
:100010002D0B08002D0B08002D0B08000000000020
:100020000000000000000000000000002D0B080090
:100030002D0B0800000000002D0B08002D0B080000
:100040002D0B08002D0B08002D0B08002D0B0800B0
:100050002D0B08002D0B08002D0B08002D0B0800A0
:100060002D0B08002D0B0800000000007909080086
:100070008D090800A1090800B5090800000000006A
:10008000000000002D0B08008D0F08002D0B08004C
:100090002D0B08002D0B08002D0B08002D0B080060
:1000A0002D0B0800000000002D0B08002D0B080090
:1000B0002D0B08002D0B08002D0B08002D0B080040
:1000C0002D0B08002D0B08002D0B08002D0B080030
:1000D0002D0B08002D0B08002D0B08002D0B080020
:1000E0002D0B08002D0B08002D0B08002D0B080010
:1000F0002D0B080010B5054C237833B9044B13B110
:100100000448AFF300800123237010BDA805072029
:1001100000000000242B080008B5064B1BB1064860
:100120000649AFF300800648036813B1054B03B1DD
:10013000984708BD00000000242B0800AC050720EC
:10014000242B08000000000010B40B0193420DD9CD
:100150001AE0416841F40021416042EA034303622E
:10016000002020E001201EE001201CE0D20002EB74
:100170005302B2FBF3F3DA0803F00703541E4FF601
:10018000FE718C42E9D9EDE7C900D30003EB5103BE
:10019000B3FBF1F3DA0803F00703541E4FF6FE71C8
:1001A0008C42D6D9E0E75DF8044B7047084BC0F8A5
:1001B000E430002343604362836288230360242386
:1001C00003604FF4807303604FF4002303607047B3
:1001D0000041535570B505460C4616460F4B9847DF
:1001E00000210F4B19609CB12846216832460D4B07
:1001F0009847034670B9A16862680A4321690A43B7
:10020000E068024306490A6069680A436A6002E0DE
:10021000012300E00123184670BD00BFAD010800B6
:10022000C40507204901080040230360704700BF50
:1002300010230360704700BF81607047044B1A8829
:10024000044B1A80044B1A88044B1A80704700BF75
:10025000CE050720CA050720C8050720CC050720C2
:10026000144B1A68144B1A60144B1B68C3F1B40387
:1002700013490B60A2F5B4710029B8BF4942194473
:10028000104A81FB0223CA18CB17C3EB22234FF479
:10029000B47202FB1311A1F5B4710029B8BF494231
:1002A000B429C8BFA1F5B471074B1960064B186893
:1002B000704700BF3801072084060720600607202A
:1002C00078060720B7600BB68806072000000000FC
:1002D000F8B504461A4B98471A4B33F834701A4A4B
:1002E0001288BF1A194A176003EBC4046088184BC0
:1002F0001B88C01A174B1860174EB04704460D46AE
:100300003846B04702460B4620462946134CA047C4
:10031000134BC3E900010022124B134CA04706A364
:10032000D3E90023114CA047114B9847114B18609B
:10033000F8BD00BFAFF300807A008BFCFA210940C2
:100340003D0208003C010720CA0507207C06072063
:10035000CC05072050060720E11C08006D1208009C
:100360007006072000806640AD1D080001200800CF
:10037000E1220800600607202DE9F84F1C4B984742
:100380001C4E1D4B1868B04704460D461B4B1868A1
:10039000B04780468946DFF87CA0DFF87CB0404655
:1003A000494642464B46D04706460F462046294618
:1003B00022462B46D04702460B4630463946D847A0
:1003C0000F4B984704460D460E4BC3E900450022EB
:1003D0000D4B0E4EB04718B102220D4B1A6302E0CE
:1003E00002220B4B5A6320462946BDE8F88F00BF16
:1003F000D1020800E11C08007C06072050060720F7
:10040000711208005806072000004E40CD22080057
:1004100000140E40AD1D0800491A08000948036881
:10042000094A1168591A01F5B471084A81FB02237F
:10043000CA18CB17C3EB22234FF4B47202FB13117B
:10044000016070473801072088060720B7600BB6A7
:1004500008B5002807DA0028B8BF4042044B984787
:10046000044B984708BD044B9847024B984708BD7A
:10047000210E08001D040800E90E0800000000001D
:10048000F8B5234E234F3B883380234C234D2B88D4
:100490002380234B98473F883388FF1A214B1F60E6
:1004A00028882388C01A204B1860204EB047044685
:1004B0000D463846B04702460B46204629461C4C9E
:1004C000A0471C4BC3E9000100221B4B1B4CA0475B
:1004D0000DA3D3E900231A4CA0471A4B9847C0F14B
:1004E000B400194B1860194B1B68984209D0184B7F
:1004F0009847154B1A68154B1A60164B9847164BC0
:100500009847F8BDAFF300807A008BFCFA210940D0
:100510006C060720CA05072054060720CC050720D3
:100520003D0208007C06072050060720E11C080059
:100530006D1208007006072000806640AD1D08009F
:1005400001200800E122080080060720380107206A
:10055000510D08006102080051040800AFF300804B
:10056000044BDB6B13F0805F03D0034B1A6801323E
:100570001A60704700120E40D0050720044BDB6B59
:1005800013F4000F03D0034B1A6801321A6070474E
:1005900000120E40D405072070B582B006460D4605
:1005A000144600200D4B984730460D4B984728467F
:1005B000214601220B4B98470B4B009328463146AE
:1005C00022464023094EB04728462146084B98470B
:1005D0004FF40052074B1A6002B070BD090B0800BF
:1005E000B10A080075070800610508003D09080008
:1005F0000108080000E100E070B582B006460D4633
:10060000144600200D4B984730460D4B984728461E
:10061000214601220B4B98470B4B0093284631464D
:1006200022464023094EB04728462146084B9847AA
:100630004FF40052074B1A6002B070BD090B08005E
:10064000B10A0800750708007D0508003D0908008B
:100650000108080000E100E010B50E480E4B984775
:1006600000203E210D4B98470D4CA0470028FCD0A0
:100670000C4B98470C4A0D4B9A620D4CA047002832
:10068000FCD010200B4B98470B4B98470148024B6E
:10069000984710BD00BD0105B10007202D0A0800D4
:1006A000810A0800910A0800013F0D2000060E4053
:1006B000A10A0800C9090800E10B080010B54FF4B1
:1006C0000042164B5A600B20154CA0470C20A04747
:1006D0000D20A0470E20A0473B204FF06051114C49
:1006E000A04755204FF06051A04756204FF0605171
:1006F000A04768200C49A0475C200C49A0470C4B40
:100700004FF440521A665A655A62C3F88020196F36
:1007100021F4405119675A6010BD00BF501A0E40B5
:10072000B10A08001108080079000028010000281B
:10073000000E0E404264B1F1805F16D004D8C1B102
:10074000B1F1006F0AD013E0B1F1405F11D0B1F107
:10075000605F0ED0B1F1205F0AD17047036F016F67
:100760000B4023EA0203036702E0036F13430367AE
:1007700042607047416412F0010F14BF4166016688
:1007800012F00A0F14BF0162416212F0020F02D090
:10079000C0F8801004E012F0080F18BFC0F88410F1
:1007A00041610160704700BF10B44164019C0CB10D
:1007B000416600E001660BB1016500E041650AB1E8
:1007C000016300E04163016101605DF8044B704723
:1007D00012F0100F10D0C0F8B01012F0200F14BF9C
:1007E000C0F8D410C0F8D01012F0400F14BFC0F8F9
:1007F000C010C0F8C4107047C0F8B410704700BFF4
:10080000C36C0164704700BFC06C7047806C704758
:1008100070B582B00D46440904F5001404F2077463
:10082000660201F0F044B4F1205F30D006D8B4F194
:10083000006F0AD0B4F1805F18D049E0B4F1405F96
:1008400030D0B4F1605F2DD042E000F01F000124F1
:10085000844030464FF0006122461F4B984715F008
:10086000010F14BF74663466012032E000F01F00EF
:100870000124844030464FF080512246164B984761
:1008800015F0010F14BF74663466012021E000F0FA
:100890001F010124304604FA01F12A460F4B984704
:1008A000204616E000F01F01012405F0605205EA21
:1008B00004030093304604FA01F1B2F1605F14BF03
:1008C00000220122C5F38003054DA847204600E021
:1008D000002002B070BD00BF350708007507080092
:1008E000A90708002DE9F04104460E46104B984731
:1008F000054620460F4B9847054017D00E4F07F18D
:100900000C046C3754F80C3CB3420AD154F8081C60
:10091000294206D023683046984754F8083C25EA17
:100920000305BC4202D01034002DEBD1BDE8F081AC
:10093000090808000D080800DC050720F8B50B4C75
:100940002468062C10D80A4F2601BD19B9516A60D7
:10095000AB600699E960013404490C6011461A46FF
:10096000044B98470020F8BD0120F8BDD8050720AA
:10097000DC050720D107080008B502480B21024B0F
:10098000984708BD000E0E40E508080008B502486B
:100990000C21024B984708BD00100E40E5080800E6
:1009A00008B502480D21024B984708BD00120E40C1
:1009B000E508080008B502480E21024B984708BD1B
:1009C00000140E40E5080800174B1A6B22F0700265
:1009D000104318639B6E13F0080F09D14FF40063A6
:1009E000114901E0013B19D08A6E12F0080FF9D0CD
:1009F0000D4B1A6B22F0030242F002021A63986E4A
:100A000010F008000CD14FF40063074901E0013BEE
:100A100008D08A6E12F0080FF9D070470120704795
:100A2000002070470120704700060E4038B1114980
:100A30000B6A114A1A40114B13430B6270470D4A5F
:100A4000136A23F45C1323F0030343F45C1343F0B1
:100A50000103090289B20B431362936E13F0010F75
:100A6000FBD0044A136A43F09B7343F48033136250
:100A7000704700BF00060E40FCFFC8FE02003701B1
:100A8000024B986E00F48030704700BF00060E40A5
:100A90004FF00052014B9A62704700BF00060E40B3
:100AA000024B986E00F00200704700BF00060E4037
:100AB0002C2820D81F280DD8124B9A690123834077
:100AC0001A40934219D0012303FA00F00D4B18612C
:100AD000002070470B4BD3F80821203801238340B6
:100AE0001A4093420BD0012303FA00F0054BC3F8E0
:100AF000000100207047012070470020704700204F
:100B0000704700BF00060E4020B1054A054BC3F8F0
:100B1000E4207047044A034BC3F8E420704700BF49
:100B200001434D5000060E4000434D50FEE700BF0C
:100B300010B51E4B1E4A9A4203D01E4B1B4A9A42C6
:100B400004D31D4B1D4A9A420FD31AE01C4B1D4C77
:100B5000E41A24F0030404340023144814495A58B6
:100B60001A500433A342FAD1EBE7174B1749C91ABD
:100B700021F003011A1D1144002243F8042F8B4277
:100B8000FBD1134A22F0604323F07F0311498B60AD
:100B900002F16042B2F5801F03D28A6842F000522F
:100BA0008A600D4B98470D4B9847FEE700000720E1
:100BB000242B0800A40507209C060720A805072071
:100BC00004000720A7050720A40507209706072093
:100BD0000000080000ED00E03D2908008110080039
:100BE0003E4B1B6B03F00303032B5FD8DFE803F0DE
:100BF000020E2B2B3A4B5B6913F0800F14BF4FF49E
:100C000000424FF4FA42374B1A604FE0334B1B6AF5
:100C100013F0807F03D0344A324B1A6046E0334AE7
:100C2000304B1A602D4B1B6A03F07003102B02D05F
:100C3000202B04D03AE02E4A2A4B1A6036E02A4A8A
:100C4000284B1A6032E0254B1B6A13F0807F03D0DB
:100C5000254A244B1A6012E0244A224B1A601F4B8B
:100C60001B6A03F07003102B02D0202B04D006E087
:100C70001F4A1C4B1A6002E01B4A1A4B1A60174BA2
:100C80001B6B03F00303022B0DD1144B986A996A76
:100C9000144BC0F30A401A6800FB0222C9B2B2FB2F
:100CA000F1F21A6002E0134A0E4B1A600B4B1B6BF9
:100CB00003F07003702B07D10A4B1A680E49A1FB91
:100CC000020252081A607047044B196B054BC1F3BE
:100CD00002111A68CA401A60704700BF00060E4031
:100CE000101A0E405C010720001BB70000093D00F0
:100CF00000127A00001C4E0EABAAAAAA0000000047
:100D0000F8B50D4C4FF40045256309A3D3E9002342
:100D10000A4916461F46E1FB006730463946084A35
:100D20000023084EB047084B98476563F8BD00BFE5
:100D30007F9FD50000000000000E0E4000BD0105A1
:100D4000809FD5007123080001000720AFF30080C9
:100D500038B540F2DC50064DA84741F6C810054CA6
:100D6000A04740F2DC50A8470348A04738BD00BF69
:100D7000010D080001000720804F12000000000054
:100D8000F8B504461E4B984720461E4B98471AA3B9
:100D9000D3E900231C4CA0471C4B98470028B8BF40
:100DA00003308410013C24EAE474002C0ADD4FF483
:100DB000A060174DA84741F6C810164B984740F25F
:100DC0007C60A8470023144A1360144A13609C42B5
:100DD00008DD41F270770F4E0F4D3846B0472B6853
:100DE0009C42FADC064B984700230B4A13600B4ADF
:100DF0001360F8BDAFF300809A9999999999F13FE2
:100E0000510D0800E11C0800AD1D0800E12208009A
:100E1000010D080001000720D0050720D405072098
:100E200070B504462D2806DD2D26054D2D3C304697
:100E3000A8472D2CFADC2046014B984770BD00BF17
:100E4000810D080000000000F8B504461E4B9847CD
:100E500020461E4B98471AA3D3E900231C4CA047F9
:100E60001C4B98470028B8BF03308410013C24EA8B
:100E7000E474002C0ADD40F2A460174DA84741F647
:100E8000C810164B98474FF4A060A8470023144A97
:100E90001360144A13609C4208DD41F270770F4ED4
:100EA0000F4D3846B0472B689C42FADC064B9847FA
:100EB00000230B4A13600B4A1360F8BDAFF30080A8
:100EC000CDCCCCCCCCCCF03F510D0800E11C0800BF
:100ED000AD1D0800E1220800010D080001000720F7
:100EE000D0050720D405072070B504462D2806DD5F
:100EF0002D26054D2D3C3046A8472D2CFADC2046EA
:100F0000014B984770BD00BF490E08002DE9F04124
:100F100080460023124A1360124A1360124E134F88
:100F20003088B84704460D464046B847104BD3E9D1
:100F30000023104FB84702460B46204629460E4C68
:100F4000A0470E4B984730800D4B18880D4CA0479A
:100F500041F6C8100C4B98473088A047BDE8F08197
:100F6000D0050720D405072060010720E11C0800F8
:100F700068010720AD1D0800491A08003123080048
:100F800070010720010D080001000720094B1A68B5
:100F900042F010021A60084801784A1CD2B202706E
:100FA0009869064B58540F2A02D90022024B1A7036
:100FB000704700BF00C009404C0607208C06072080
:100FC0000B78303BC3EB431203EB8203DB009BB295
:100FD00003804A78303A02EB820202EB820203EB92
:100FE000820292B202808B78303B03EB830302EBE8
:100FF00043039BB20380CA78303A1344038070479E
:1010000000B583B00C4B1A788DF804205A788DF80F
:1010100005209A788DF80620DB788DF8073002A835
:10102000002320F8063D01A9044B9847BDF80200B3
:1010300003B05DF804FB00BF8C060720C10F080059
:1010400000B583B00C4B1A798DF804205A798DF8CD
:1010500005209A798DF80620DB798DF8073002A8F3
:10106000002320F8063D01A9044B9847BDF8020073
:1010700003B05DF804FB00BF8C060720C10F080019
:101080002DE9F04F87B0574B9847574B9847574C2F
:101090002046574EB0474FF416530093C023019398
:1010A0004FF4006302930025039504951220B04786
:1010B000204669464F4A504B984720464F4B984729
:1010C00020464F4B98474FF480224E4B1A602046E3
:1010D00001214D4B98474D4B4FF400421A61C3F824
:1010E000A02003F5C06302221A61C3F8A02004F512
:1010F0008A2404F500744FF080632361C4F8A030A3
:101100004FF000736361C4F8A0300D2021464FF00A
:1011100080523F4B98470D2021464FF400023D4B33
:1011200098473D483D4B9847AB464FF00008DFF8E5
:1011300034915FFA8BFA5046394B9847394B9847B0
:10114000394B9847394B9847394B1880394B98475A
:10115000394B18805046394B984706460F4628E0D1
:101160005046364B984704460D46304639460022D5
:10117000334BDFF8F4C0E04702460B4620462946D1
:10118000304CA04718B1304B9847002600272F4815
:10119000224B98472E4B18682E4B1B68C01A2E4BBB
:1011A0009847224B9847224B1880224B9847224B56
:1011B00018805046214B984742464B46274CA04743
:1011C0000028CDD14EF66020144B9847244B984709
:1011D0000BF1010BBBF1040FABD1002007B0BDE850
:1011E000F08F00BF59060800BD06080000C0094086
:1011F000B10A080000BD0105D50108002902080058
:101200003102080000E100E039020800000E0E4043
:1012100099050800F9050800001BB7000100072028
:10122000D102080061020800510408000110080002
:10123000CE05072041100800C805072079030800E3
:101240000000E03F9122080081040800C0C62D0084
:10125000D0050720D40507200D0F0800CD22080077
:10126000510D080000004E40AD1D080000F058B8B8
:101270002DE9F0478AB004460D4600F049F9DFF841
:1012800098A006469AF900300F4601330FD0204649
:10129000294600F0A9FB50B14FF000084FF00009BB
:1012A00042464B462046294600F0F2FF20B9304620
:1012B00039460AB0BDE8F08716499AF80060012265
:1012C0000023CDE90445CDE9024501910092089340
:1012D00066B9CDE90689684600F0AEFB80B1089B8F
:1012E0009BB9DDE906010AB0BDE8F08740464946F2
:1012F00042464B4600F084FE022ECDE90601EAD1BB
:1013000001F016FB21230360E9E701F011FB089BC4
:101310000360E6E7A82A0800720107200000000029
:101320002DE9F047C2F1000949EA020923F000481B
:10133000DFF8D4C148EAD97982B0E14514461D46A8
:10134000CDE900010F4647D8C0F1000A4AEA000A79
:1013500021F0004949EADA7AE2453DD803F1404CF0
:101360000CF5801C5CEA020C4CD04FEAA37A0AF020
:10137000020A4AEAD17A59EA000136D058EA040151
:101380003AD06149884551D05F49894534D0C8EB8E
:1013900009084FEA2858B8F13C0F43DC002D70DBF8
:1013A000DDE9000100F02CFE00F01AFB00F070F9FE
:1013B000BAF1010F62D0BAF1020F52D0BAF1000FA8
:1013C00010D03FA3D3E9002300F03CFB3EA3D3E9B8
:1013D000002300F037FB05E010461946DDE9002345
:1013E00000F032FB02B0BDE8F087BAF1030FC5D8B8
:1013F000DFE80AF00D0D1410002F2EDB34A1D1E927
:101400000001EFE702B0BDE8F04700F041B9DDE9C7
:101410000001E7E730A1D1E90001E3E72AA1D1E922
:101420000001DFE72AA1D1E90001C1E7C1452ED0C3
:10143000BAF1030FA8D801A151F82AF055140800F9
:101440004D1408001D1408001514080000204FF06A
:101450000041C7E700200021C4E721A1D1E9000134
:10146000C0E717A3D3E9002300F0ECFA02460B46CD
:1014700015A1D1E9000100F0E5FAB3E701F100415F
:10148000B0E718F13C0F8BDA0020002190E7BAF1A9
:10149000030FB1D8DFE80AF006020E0A12A1D1E963
:1014A00000019FE712A1D1E900019BE712A1D1E958
:1014B000000197E712A1D1E9000193E7AFF30080A3
:1014C000075C143326A6A13C182D4454FB21094087
:1014D000182D4454FB21F93F182D4454FB2109C019
:1014E000182D4454FB21F9BF182D4454FB21E9BFAA
:1014F000182D4454FB21E93FD221337F7CD902C00F
:10150000D221337F7CD902400000F07FAFF300800E
:1015100021F0004C2DE9F8434FEA1C5CDFF86C81A8
:101520004FEA0C5CC44506460F460B46024600F0E7
:101530008F8000296FDD0F1578D0A7F2FF37C3F336
:101540001303F90743F4801360D4D10F4FF0000C5C
:1015500001EB43037F105200654616204FF4001143
:101560006C189C424FEAD2764FEA420202DC1B1B07
:1015700065188C44013806EB43034FEA5101EFD163
:10158000804620264FF0004109E023D0D40F013ED1
:101590004FEA510104EB43034FEA42021ED0AB4233
:1015A00001EB0804F1DD04F00049B9F1004F04EB50
:1015B000010809D0A9465B1B944288BF03F1FF33A1
:1015C000121B08444D46E1E7B8F1000FF2DB05F1CC
:1015D0000109F0E79442E6D91D46D7E71A4304D043
:1015E000431C41D000F00103184446084FEA6C0345
:1015F0001CF0010F03F17F5303F5001318BF46F0F1
:10160000004603EB07513046BDE8F883D10F01EBEC
:101610004303520099E721F00043034322D051BB1A
:101620000F46D30A153F5205002BFAD013F4801150
:101630001DD15B00D80201F10101FAD5C1F1010011
:10164000C1F1200422FA04F407448A40234374E7DA
:1016500002460B4600F0AAFB32463B4600F0F4F986
:10166000BDE8F883BDE8F8830CF1010CBEE7202447
:1016700001200021E6E702460B4600F0E3F90246AE
:101680000B4600F0BDFCBDE8F88300BF0000F07F12
:101690002DE9F04FB64B21F000469E4283B0044640
:1016A0000D4689460FDDB3498E4200F3B38000F04A
:1016B000AE80B9F1000F40F3EF8091A1D1E90001B4
:1016C00003B0BDE8F08FAC4B9E4200F3BD80A3F1A8
:1016D000DE739E4240F3A7804FF0FF3C22462B462C
:1016E00020462946CDF804C000F060FB02460B46B8
:1016F00082468B4600F05AFB83A3D3E900230646BB
:101700000F4600F053FB82A3D3E9002300F09CF9BD
:1017100032463B4600F04AFB7FA3D3E9002300F0AA
:1017200093F932463B4600F041FB7DA3D3E9002309
:1017300000F08AF932463B4600F038FB7AA3D3E941
:10174000002300F081F932463B4600F02FFB78A3DE
:10175000D3E9002300F078F952465B4600F026FBFF
:1017600075A3D3E9002382468B463046394600F004
:101770001DFB73A3D3E9002300F064F932463B4616
:1017800000F014FB70A3D3E9002300F05BF93246AC
:101790003B4600F00BFB6EA3D3E9002300F052F9A7
:1017A00032463B4600F002FB6BA3D3E9002300F076
:1017B00049F932463B4600F0F9FADDF804C002462A
:1017C000BCF1FF3F0B466BD0504659464FEACC0662
:1017D00000F03AF922462B4600F0E8FA674F684BD2
:1017E00037441E44D6E9002300F02CF922462B464C
:1017F00000F028F902460B46D7E9000100F022F973
:10180000B9F1000F0CDA01F10045294608E0002883
:101810003FF44FAF2046294622462B4600F014F9EC
:1018200003B0BDE8F08F4EA3D3E9002300F00CF91C
:101830000022544B00F04AFD00283FF44DAF2046F3
:10184000294603B0BDE8F08F00F0CAF84E4B0446BD
:101850009E420D4633DCA3F550239E4200F3A58043
:1018600002460B4600F0F0F80022464B00F0EAF882
:10187000002206460F46204629464FF0804300F0DE
:10188000E3F802460B463046394600F0B9FB4FF00C
:10189000000C04460D4621E733A1D1E90001BFE762
:1018A0005046594600F0D0F822462B4600F07EFA0A
:1018B00002460B462046294600F0C4F8B0E7334BF9
:1018C0009E4267DC0022324B00F0BCF80022064644
:1018D0000F46204629462E4B00F068FA0022294B7D
:1018E00000F0B2F802460B463046394600F088FB5D
:1018F0004FF0020C04460D46F0E600BFAFF3008047
:10190000182D4454FB21F93F11DA22E33AAD903F00
:10191000EB0D76244B7BA93F513DD0A0660DB13F26
:101920006E204CC5CD45B73FFF8300922449C23F8E
:101930000D5555555555D53F2F6C6A2C44B4A2BF53
:101940009AFDDE522DDEAD3F6D9A74AFF2B0B33F1B
:10195000711623FEC671BC3FC4EB98999999C93F93
:101960009C7500883CE4377E182D4454FB21F9BF58
:10197000FFFF0F440000F07FFFFFDB3FD02A08008D
:10198000B02A08000000F03FFFFFF23FFF7F034056
:101990000000F83F02460B4600200F4900F030FBE4
:1019A0004FF0030C04460D4698E600220B4B00F066
:1019B00049F8002206460F4620462946074B00F00C
:1019C00043F802460B463046394600F019FB4FF00B
:1019D000010C04460D4681E60000F0BF0000F03F18
:1019E00021F00041704700BF31F0004310B408D02F
:1019F0000F4AA3F5801494420AD804205DF8044BE2
:101A0000704700280CBF022003205DF8044B70478C
:101A1000B3F5801F01D20320F7E7064A934201D0B5
:101A20000020F2E7D0F1010038BF0020EDE700BF51
:101A3000FFFFDF7F0000F07F0020704781F0004152
:101A400002E000BF83F0004330B54FEA41044FEAA3
:101A5000430594EA050F08BF90EA020F1FBF54EA3E
:101A6000000C55EA020C7FEA645C7FEA655C00F0DA
:101A7000E2804FEA5454D4EB5555B8BF6D420CDDAB
:101A80002C4480EA020281EA030382EA000083EA2E
:101A9000010180EA020281EA0303362D88BF30BDCE
:101AA00011F0004F4FEA01314FF4801C4CEA113124
:101AB00002D0404261EB410113F0004F4FEA033383
:101AC0004CEA133302D0524263EB430394EA050F0E
:101AD00000F0A780A4F10104D5F1200E0DDB02FA7D
:101AE0000EFC22FA05F2801841F1000103FA0EF211
:101AF000801843FA05F359410EE0A5F120050EF1D7
:101B0000200E012A03FA0EFC28BF4CF0020C43FA07
:101B100005F3C01851EBE37101F0004507D54FF014
:101B2000000EDCF1000C7EEB00006EEB0101B1F564
:101B3000801F1BD3B1F5001F0CD349085FEA3000AA
:101B40004FEA3C0C04F101044FEA445212F5800FB5
:101B500080F09A80BCF1004F08BF5FEA500C50F152
:101B6000000041EB045141EA050130BD5FEA4C0C35
:101B7000404141EB010111F4801FA4F10104E9D1BE
:101B800091F0000F04BF01460020B1FA81F308BFB5
:101B90002033A3F10B03B3F120020CDA0C3208DD81
:101BA00002F1140CC2F10C0201FA0CF021FA02F15C
:101BB0000CE002F11402D8BFC2F1200C01FA02F1CC
:101BC00020FA0CFCDCBF41EA0C019040E41AA2BFF1
:101BD00001EB0451294330BD6FEA04041F3C1CDAB9
:101BE0000C340EDC04F11404C4F1200220FA04F0D9
:101BF00001FA02F340EA030021FA04F345EA030183
:101C000030BDC4F10C04C4F1200220FA02F001FA44
:101C100004F340EA0300294630BD21FA04F02946C6
:101C200030BD94F0000F83F4801306BF81F480115F
:101C30000134013D4EE77FEA645C18BF7FEA655CD2
:101C400029D094EA050F08BF90EA020F05D054EAA4
:101C5000000C04BF1946104630BD91EA030F1EBFA9
:101C60000021002030BD5FEA545C05D140004941AD
:101C700028BF41F0004130BD14F580043CBF01F5A0
:101C8000801130BD01F0004545F0FE4141F4700186
:101C90004FF0000030BD7FEA645C1ABF1946104661
:101CA0007FEA655C1CBF0B46024650EA013406BF62
:101CB00052EA033591EA030F41F4002130BD00BF21
:101CC00090F0000F04BF0021704730B54FF48064DE
:101CD00004F132044FF000054FF0000150E700BF5F
:101CE00090F0000F04BF0021704730B54FF48064BE
:101CF00004F1320410F0004548BF40424FF00001AB
:101D00003EE700BF42004FEAE2014FEA31014FEAED
:101D100002701FBF12F07F4393F07F4F81F060513C
:101D2000704792F0000F14BF93F07F4F704730B5AB
:101D30004FF4607401F0004521F0004120E700BF3E
:101D400050EA010208BF704730B54FF000050AE0C5
:101D500050EA010208BF704730B511F0004502D5C6
:101D6000404261EB41014FF4806404F132045FEAC8
:101D7000915C3FF4DCAE4FF003025FEADC0C18BF6D
:101D800003325FEADC0C18BF033202EBDC02C2F163
:101D9000200300FA03FC20FA02F001FA03FE40EAF5
:101DA0000E0021FA02F11444C1E600BF70B54FF0F5
:101DB000FF0C4CF4E06C1CEA11541DBF1CEA1355D7
:101DC00094EA0C0F95EA0C0F00F0DEF82C4481EA3F
:101DD000030621EA4C5123EA4C5350EA013518BF5F
:101DE00052EA033541F4801143F4801338D0A0FB4C
:101DF00002CE4FF00005E1FB02E506F00042E0FBF9
:101E000003E54FF00006E1FB03569CF0000F18BFFE
:101E10004EF0010EA4F1FF04B6F5007F64F54074A6
:101E200004D25FEA4E0E6D4146EB060642EAC62139
:101E300041EA55514FEAC52040EA5E504FEACE2EA6
:101E4000B4F1FD0C88BFBCF5E06F1ED8BEF1004FA9
:101E500008BF5FEA500E50F1000041EB045170BD25
:101E600006F0004646EA010140EA020081EA030169
:101E7000B4EB5C04C2BFD4EB0C0541EA045170BD65
:101E800041F480114FF0000E013C00F3AB8014F1DF
:101E9000360FDEBF002001F0004170BDC4F1000428
:101EA000203C35DA0C341BDC04F11404C4F12005A9
:101EB00000FA05F320FA04F001FA05F240EA020004
:101EC00001F0004221F0004110EBD37021FA04F63A
:101ED00042EB06015EEA430E08BF20EAD37070BDF4
:101EE000C4F10C04C4F1200500FA04F320FA05F053
:101EF00001FA04F240EA020001F0004110EBD37055
:101F000041F100015EEA430E08BF20EAD37070BDC4
:101F1000C4F1200500FA05F24EEA020E20FA04F39D
:101F200001FA05F243EA020321FA04F001F000414C
:101F300021FA04F220EA020000EBD3705EEA430EBD
:101F400008BF20EAD37070BD94F0000F0FD101F0EC
:101F50000046400041EB010111F4801F08BF013C25
:101F6000F7D041EA060195F0000F18BF704703F063
:101F70000046520043EB030313F4801F08BF013DEA
:101F8000F7D043EA0603704794EA0C0F0CEA1355A6
:101F900018BF95EA0C0F0CD050EA410618BF52EA60
:101FA0004306D1D181EA030101F000414FF0000066
:101FB00070BD50EA410606BF1046194652EA430674
:101FC00019D094EA0C0F02D150EA013613D195EAE8
:101FD0000C0F05D152EA03361CBF104619460AD130
:101FE00081EA030101F0004141F0FE4141F470013A
:101FF0004FF0000070BD41F0FE4141F4780170BD2A
:1020000070B54FF0FF0C4CF4E06C1CEA11541DBF8E
:102010001CEA135594EA0C0F95EA0C0F00F0A7F890
:10202000A4EB050481EA030E52EA03354FEA0131BD
:1020300000F088804FEA03334FF0805545EA1313D0
:1020400043EA12634FEA022245EA111545EA106598
:102050004FEA00260EF000419D4208BF964244F12F
:10206000FD0404F5407402D25B084FEA3202B61A4E
:1020700065EB03055B084FEA32024FF480104FF422
:10208000002CB6EB020E75EB030E22BFB61A754696
:1020900040EA0C005B084FEA3202B6EB020E75EB29
:1020A000030E22BFB61A754640EA5C005B084FEA91
:1020B0003202B6EB020E75EB030E22BFB61A75465E
:1020C00040EA9C005B084FEA3202B6EB020E75EB69
:1020D000030E22BFB61A754640EADC0055EA060E2A
:1020E00018D04FEA051545EA16754FEA06164FEA6D
:1020F000C30343EA52734FEAC2025FEA1C1CC0D119
:1021000011F4801F0BD141EA00014FF000004FF0A5
:10211000004CB6E711F4801F04BF01430020B4F166
:10212000FD0C88BFBCF5E06F3FF6AFAEB5EB030C1E
:1021300004BFB6EB020C5FEA500C50F1000041EB1B
:10214000045170BD0EF0004E4EEA113114EB5C04E8
:10215000C2BFD4EB0C0541EA045170BD41F48011BB
:102160004FF0000E013C90E645EA060E8DE60CEAC3
:10217000135594EA0C0F08BF95EA0C0F3FF43BAFE0
:1021800094EA0C0F0AD150EA01347FF434AF95EA97
:102190000C0F7FF425AF104619462CE795EA0C0F7B
:1021A00006D152EA03353FF4FDAE1046194622E748
:1021B00050EA410618BF52EA43067FF4C5AE50EA22
:1021C00041047FF40DAF52EA43057FF4EBAE12E712
:1021D0004FF0FF3C06E000BF4FF0010C02E000BFF3
:1021E0004FF0010C4DF804CD4FEA410C7FEA6C5CD6
:1021F0004FEA430C18BF7FEA6C5C1BD001B050EA79
:10220000410C0CBF52EA430C91EA030F02BF90EA63
:10221000020F0020704710F1000F91EA030F58BF22
:10222000994208BF90422CBFD8176FEAE37040F084
:10223000010070474FEA410C7FEA6C5C02D150EA22
:10224000013C07D14FEA430C7FEA6C5CD6D152EADD
:10225000033CD3D05DF8040B704700BF84461046A2
:1022600062468C461946634600E000BF01B5FFF7A1
:10227000B7FF002848BF10F1000F01BD4DF808ED71
:10228000FFF7F4FF0CBF012000205DF808FB00BF42
:102290004DF808EDFFF7EAFF34BF012000205DF89C
:1022A00008FB00BF4DF808EDFFF7E0FF94BF0120E9
:1022B00000205DF808FB00BF4DF808EDFFF7CEFFEA
:1022C00094BF012000205DF808FB00BF4DF808ED29
:1022D000FFF7C4FF34BF012000205DF808FB00BFFA
:1022E0004FEA410212F5001215D211D56FF478733E
:1022F000B3EB625212D94FEAC12343F0004343EAE1
:10230000505311F0004F23FA02F018BF40427047BB
:102310004FF00000704750EA013005D111F0004045
:1023200008BF6FF0004070474FF00000704700BFDB
:102330004A0011D212F5001211D20DD56FF4787344
:10234000B3EB62520ED44FEAC12343F0004343EA99
:10235000505323FA02F070474FF00000704750EAE4
:10236000013002D14FF0FF3070474FF0000070474E
:102370004BB942B9002908BF002802D04FF0FF3105
:10238000084600F03BB882B0EC462DE9005000F062
:102390001DF8DDF804E002B00CBC70472DE9704F69
:1023A000089E14461D468046894600F029F804FB25
:1023B00001F3A4FB00AB00FB05329344B8EB0A0821
:1023C00069EB0B09C6E90089BDE8708F2DE9704FF4
:1023D000089E14461D468046894600F061F900FBC0
:1023E00005F5A0FB04AB04FB0154A344B8EB0A08B9
:1023F00069EB0B09C6E90089BDE8708F704700BF23
:1024000000292DE9F00FC0F2A1800024002BC0F2BA
:102410009880154606460F46002B3FD18A4258D970
:10242000B2FA82F34BB1C3F1200201FA03F720FAAA
:1024300002F29D4000FA03F61743290CB7FBF1F2B4
:1024400001FB1277A8B200FB02F34FEA164C4CEAEC
:102450000747BB4209D97F1902F1FF3C80F0058193
:10246000BB4240F20281023A2F44FF1AB7FBF1F35C
:1024700001FB137100FB03F0B6B246EA014188424A
:1024800008D9491903F1FF3780F0F180884240F202
:10249000EE80023B43EA0242002303E08B420AD96A
:1024A00000231A461046194614B1404261EB41011F
:1024B000BDE8F00F7047B3FA83F8B8F1000F40F0B1
:1024C00088808B4202D3824200F2E2800023012204
:1024D000E8E712B90123B3FBF2F5B5FA85F2002A59
:1024E0003AD17F1B280C1FFA85FC0123B7FBF0F1C2
:1024F00000FB11770CFB01F24FEA164848EA074748
:10250000BA4207D97F1901F1FF3802D2BA4200F26C
:10251000C4804146BF1AB7FBF0F200FB12700CFBFF
:1025200002FCB6B246EA0040844507D9401902F1E0
:10253000FF3702D2844500F2AE803A4642EA0142B9
:10254000B0E7E443524263EB430362E7404261EB8E
:1025500041014FF0FF3459E79540C2F1200927FAB5
:1025600009F126FA09F99740280CB1FBF0F800FBB5
:1025700018111FFA85FC0CFB08F349EA07094FEA1A
:10258000194747EA01418B4206FA02F608D9491970
:1025900008F1FF327AD28B4278D9A8F10208294497
:1025A000C91AB1FBF0F300FB13170CFB03F21FFA7F
:1025B00089F949EA0747BA4207D97F1903F1FF3180
:1025C00060D2BA425ED9023B2F44BF1A43EA0843A5
:1025D0008CE7C8F1200225FA02F103FA08FC27FA79
:1025E00002F320FA02F207FA08F741EA0C0C4FEA6C
:1025F0001C49B3FBF9F109FB11331FFA8CFA0AFBF2
:1026000001FB17433A0C42EA03439B4505FA08F0E5
:1026100008D913EB0C0301F1FF3235D29B4533D9B6
:1026200002396344CBEB0303B3FBF9F209FB12332A
:102630000AFB02FABFB247EA0347BA4508D917EBCB
:102640000C0702F1FF331BD2BA4519D9023A67448D
:1026500042EA0145A5FB0001CAEB07078F424FF094
:1026600000030AD305D02A461CE76246FDE63B4636
:1026700010E706FA08F68642F5D26A1E002311E733
:102680001A46E5E70B46A0E71146CBE7904687E7F9
:102690004346424606E7023A50E702392F4439E7FB
:1026A0002DE9F00F144605460E46002B43D18A4211
:1026B00053D9B2FA82F757B1C7F1200620FA06F6CD
:1026C00001FA07F302FA07F400FA07F51E43210C9A
:1026D000B6FBF1F201FB1266A0B200FB02F32F0C75
:1026E00047EA0646B34209D9361902F1FF3780F0AE
:1026F000FD80B34240F2FA80023A2644F61AB6FB55
:10270000F1F301FB136100FB03F0ADB245EA0141B7
:10271000884208D9091903F1FF3680F0E980884220
:1027200040F2E680023B43EA02420023104619468B
:10273000BDE8F00F70478B424CD8B3FA83F6002EF9
:102740004FD18B4202D3824200F2DD80BDE8F00F10
:102750000023012210461946704712B90124B4FB28
:10276000F2F4B4FA84F2002A40F08280091B260CAD
:10277000A7B20123B1FBF6F006FB101107FB00F234
:102780004FEA154C4CEA01418A4207D9091900F178
:10279000FF3C02D28A4200F2C8806046891AB1FB2F
:1027A000F6F206FB121107FB02F7ADB245EA01454E
:1027B000AF4208D92C1902F1FF3180F09B80A7426B
:1027C00040F29880023A42EA004210461946BDE8BB
:1027D000F00F704700231A4610461946BDE8F00F67
:1027E0007047C6F1200522FA05F703FA06F421FA2C
:1027F00005F301FA06FB20FA05F53C434FEA1448BD
:10280000B3FBF8FC08FB1C331FFA84F909FB0CFA34
:1028100045EA0B0B4FEA1B4545EA03439A4502FA8A
:1028200006F204D91B190CF1FF356FD3AC46CAEB85
:102830000303B3FBF8F508FB153309FB05F91FFA91
:102840008BFB4BEA0347B94504D93F1905F1FF3328
:1028500062D31D4645EA0C4CACFB0223C9EB0707CB
:102860009F424FF000054AD346D062462B465DE7B3
:102870009440C2F1200921FA09FC914020FA09F99B
:10288000260CBCFBF6F806FB18CCA7B207FB08F336
:1028900049EA01094FEA194141EA0C4C634500FA43
:1028A00002F509D91CEB040C08F1FF323BD2634559
:1028B00039D9A8F10208A444C3EB0C0CBCFBF6F315
:1028C00006FB13C107FB03F21FFA89F949EA01412C
:1028D0008A4207D9091903F1FF3022D28A4220D94E
:1028E000023B2144891A43EA084343E73A4605E795
:1028F000334618E70A4666E7B0409042B5D20CF17D
:10290000FF32002312E7334632460FE79A458DD94E
:10291000ACF1020C23448AE7B9459AD9023D274419
:1029200098E70346DEE79046C6E70238214435E7DC
:10293000014B1868704700BFA005072070B50F4E07
:102940000F4D761BB61007D0043D0024013455F816
:10295000043F9847A642F9D10A4E0B4D00F0CCF83F
:10296000761BB61008D0043D0024013455F8043F0E
:102970009847A642F9D170BD70BD00BF042B080076
:10298000042B08000C2B0800042B0800024B13B189
:10299000024800F005B8704700000000AD290800AB
:1029A000014600200246034600F018B838B5094D2C
:1029B000094C641BA41018BF05EB840505D0013C2D
:1029C00055F8043D9847002CF9D1BDE8384000F097
:1029D0009DB800BF182B08001C2B0800F0B5274C31
:1029E00085B026680746D6F84841002C40D0656877
:1029F0001F2D1EDD224818B94FF0FF3005B0F0BD85
:102A00004FF4C870039102920193AFF300800399D1
:102A10000446029A019B0028EED0D6F848510020C7
:102A2000256060600546C6F84841C4F88801C4F8CE
:102A30008C013FB96B1C00200235636044F82510FF
:102A400005B0F0BD0126AE4004EB8500C0F888203B
:102A5000D4F88821022F42EA0602C4F88821C0F87F
:102A60000831E7D1D4F88C311E43C4F88C61E1E71A
:102A700006F5A674C6F84841B9E700BFF42A080075
:102A800000000000536F636B00000000476C61732F
:102A900073000000437562650000000044726F70AF
:102AA000206F666600000000737172740000000001
:102AB000E2652F227F2B7A3C075C143326A6813CEB
:102AC000BDCBF07A8807703C075C143326A6913C96
:102AD0004FBB610567ACDD3F182D4454FB21E93F36
:102AE0009BF681D20B73EF3F182D4454FB21F93F25
:102AF0004300000078010720F8B500BFF8BC08BC0F
:102B00009E4670478D29080019010800F8B500BFDE
:0C2B1000F8BC08BC9E467047F5000800A9
:082B1C00E4F8FF7F0100000056
:102B2400BFF35F8F0138FBD1704700BF4FF4806360
:102B3400204A136002F5007213601F4B1B6A13F0E6
:102B4400807F07D11D4A1C4B1A621A46936E13F0FC
:102B5400010FFBD01A4A184B1A621A46936E13F4EB
:102B6400803FFBD0144B1A6B22F0030242F00102A7
:102B74001A631A46936E13F0080FFBD0114A0E4BDA
:102B84009A621A46936E13F0020FFBD011220A4B7D
:102B94001A631A46936E13F0080FFBD01222064BE9
:102BA4001A631A46936E13F0080FFBD0064A074BBC
:102BB4001A607047000A0E4000060E4009083700EC
:102BC40009083701013F0D2000BD01055C01072004
:102BD4001B4B984206D800231A4A136002F5007270
:102BE40013607047184B984207D84FF48073154A06
:102BF400136002F5007213607047144B984207D8B3
:102C04004FF400730F4A136002F5007213607047AB
:102C14000F4B984207D84FF440730A4A136002F5E9
:102C24000072136070470B4B984294BF4FF480635B
:102C34004FF4A063034A136002F5007213607047F7
:102C4400BFEA2101000A0E407FF0FA02FF8FD00391
:102C5400FFB3C4047F4A5D055A0000008800C80021
:102C6400842A080038006A018C2A0800B201230073
:102C7400942A0800C3015E019C2A080000093D0053
:102C84007C06000000000000000000000000F03F8F
:102C9400A4060100000000000000000064040720F6
:102CA400CC040720340507200000000000000000C9
:102CB4000000000000000000000000000000000010
:102CC400000000000000000000000000F02A0800DE
:102CD40000000000000000000000000000000000F0
:102CE40000000000000000000000000000000000E0
:102CF40000000000000000000000000000000000D0
:102D040000000000000000000000000000000000BF
:102D140000000000000000000000000000000000AF
:102D2400000000000000000000000000000000009F
:102D3400000000000000000000000000000000008F
:102D440001000000000000000E33CDAB34126DE62C
:102D5400ECDE05000B000000000000000000000095
:102D6400000000000000000000000000000000005F
:102D7400000000000000000000000000000000004F
:102D8400000000000000000000000000000000003F
:102D9400000000000000000000000000000000002F
:0430C4007801072068
:0400000380000B313D
:00000001FF
